{
  "contractName": "IsotileFurnitureV0",
  "abi": [
    {
      "inputs": [],
      "stateMutability": "nonpayable",
      "type": "constructor"
    },
    {
      "anonymous": false,
      "inputs": [
        {
          "indexed": true,
          "internalType": "address",
          "name": "account",
          "type": "address"
        },
        {
          "indexed": true,
          "internalType": "address",
          "name": "operator",
          "type": "address"
        },
        {
          "indexed": false,
          "internalType": "bool",
          "name": "approved",
          "type": "bool"
        }
      ],
      "name": "ApprovalForAll",
      "type": "event"
    },
    {
      "anonymous": false,
      "inputs": [
        {
          "indexed": true,
          "internalType": "address",
          "name": "previousOwner",
          "type": "address"
        },
        {
          "indexed": true,
          "internalType": "address",
          "name": "newOwner",
          "type": "address"
        }
      ],
      "name": "OwnershipTransferred",
      "type": "event"
    },
    {
      "anonymous": false,
      "inputs": [
        {
          "indexed": true,
          "internalType": "address",
          "name": "operator",
          "type": "address"
        },
        {
          "indexed": true,
          "internalType": "address",
          "name": "from",
          "type": "address"
        },
        {
          "indexed": true,
          "internalType": "address",
          "name": "to",
          "type": "address"
        },
        {
          "indexed": false,
          "internalType": "uint256[]",
          "name": "ids",
          "type": "uint256[]"
        },
        {
          "indexed": false,
          "internalType": "uint256[]",
          "name": "values",
          "type": "uint256[]"
        }
      ],
      "name": "TransferBatch",
      "type": "event"
    },
    {
      "anonymous": false,
      "inputs": [
        {
          "indexed": true,
          "internalType": "address",
          "name": "operator",
          "type": "address"
        },
        {
          "indexed": true,
          "internalType": "address",
          "name": "from",
          "type": "address"
        },
        {
          "indexed": true,
          "internalType": "address",
          "name": "to",
          "type": "address"
        },
        {
          "indexed": false,
          "internalType": "uint256",
          "name": "id",
          "type": "uint256"
        },
        {
          "indexed": false,
          "internalType": "uint256",
          "name": "value",
          "type": "uint256"
        }
      ],
      "name": "TransferSingle",
      "type": "event"
    },
    {
      "anonymous": false,
      "inputs": [
        {
          "indexed": false,
          "internalType": "string",
          "name": "value",
          "type": "string"
        },
        {
          "indexed": true,
          "internalType": "uint256",
          "name": "id",
          "type": "uint256"
        }
      ],
      "name": "URI",
      "type": "event"
    },
    {
      "inputs": [
        {
          "internalType": "address",
          "name": "account",
          "type": "address"
        },
        {
          "internalType": "uint256",
          "name": "id",
          "type": "uint256"
        }
      ],
      "name": "balanceOf",
      "outputs": [
        {
          "internalType": "uint256",
          "name": "",
          "type": "uint256"
        }
      ],
      "stateMutability": "view",
      "type": "function"
    },
    {
      "inputs": [
        {
          "internalType": "address[]",
          "name": "accounts",
          "type": "address[]"
        },
        {
          "internalType": "uint256[]",
          "name": "ids",
          "type": "uint256[]"
        }
      ],
      "name": "balanceOfBatch",
      "outputs": [
        {
          "internalType": "uint256[]",
          "name": "",
          "type": "uint256[]"
        }
      ],
      "stateMutability": "view",
      "type": "function"
    },
    {
      "inputs": [
        {
          "internalType": "address",
          "name": "account",
          "type": "address"
        },
        {
          "internalType": "address",
          "name": "operator",
          "type": "address"
        }
      ],
      "name": "isApprovedForAll",
      "outputs": [
        {
          "internalType": "bool",
          "name": "",
          "type": "bool"
        }
      ],
      "stateMutability": "view",
      "type": "function"
    },
    {
      "inputs": [],
      "name": "owner",
      "outputs": [
        {
          "internalType": "address",
          "name": "",
          "type": "address"
        }
      ],
      "stateMutability": "view",
      "type": "function"
    },
    {
      "inputs": [],
      "name": "renounceOwnership",
      "outputs": [],
      "stateMutability": "nonpayable",
      "type": "function"
    },
    {
      "inputs": [
        {
          "internalType": "address",
          "name": "from",
          "type": "address"
        },
        {
          "internalType": "address",
          "name": "to",
          "type": "address"
        },
        {
          "internalType": "uint256[]",
          "name": "ids",
          "type": "uint256[]"
        },
        {
          "internalType": "uint256[]",
          "name": "amounts",
          "type": "uint256[]"
        },
        {
          "internalType": "bytes",
          "name": "data",
          "type": "bytes"
        }
      ],
      "name": "safeBatchTransferFrom",
      "outputs": [],
      "stateMutability": "nonpayable",
      "type": "function"
    },
    {
      "inputs": [
        {
          "internalType": "address",
          "name": "from",
          "type": "address"
        },
        {
          "internalType": "address",
          "name": "to",
          "type": "address"
        },
        {
          "internalType": "uint256",
          "name": "id",
          "type": "uint256"
        },
        {
          "internalType": "uint256",
          "name": "amount",
          "type": "uint256"
        },
        {
          "internalType": "bytes",
          "name": "data",
          "type": "bytes"
        }
      ],
      "name": "safeTransferFrom",
      "outputs": [],
      "stateMutability": "nonpayable",
      "type": "function"
    },
    {
      "inputs": [
        {
          "internalType": "address",
          "name": "operator",
          "type": "address"
        },
        {
          "internalType": "bool",
          "name": "approved",
          "type": "bool"
        }
      ],
      "name": "setApprovalForAll",
      "outputs": [],
      "stateMutability": "nonpayable",
      "type": "function"
    },
    {
      "inputs": [
        {
          "internalType": "bytes4",
          "name": "interfaceId",
          "type": "bytes4"
        }
      ],
      "name": "supportsInterface",
      "outputs": [
        {
          "internalType": "bool",
          "name": "",
          "type": "bool"
        }
      ],
      "stateMutability": "view",
      "type": "function"
    },
    {
      "inputs": [
        {
          "internalType": "address",
          "name": "newOwner",
          "type": "address"
        }
      ],
      "name": "transferOwnership",
      "outputs": [],
      "stateMutability": "nonpayable",
      "type": "function"
    },
    {
      "inputs": [],
      "name": "getTotalFurnitures",
      "outputs": [
        {
          "internalType": "uint256",
          "name": "",
          "type": "uint256"
        }
      ],
      "stateMutability": "view",
      "type": "function"
    },
    {
      "inputs": [
        {
          "internalType": "string",
          "name": "_globalUri",
          "type": "string"
        },
        {
          "internalType": "uint256",
          "name": "_maxSupply",
          "type": "uint256"
        },
        {
          "internalType": "uint256",
          "name": "_weisPrice",
          "type": "uint256"
        }
      ],
      "name": "addFurniture",
      "outputs": [],
      "stateMutability": "nonpayable",
      "type": "function"
    },
    {
      "inputs": [
        {
          "internalType": "uint256",
          "name": "id",
          "type": "uint256"
        }
      ],
      "name": "uri",
      "outputs": [
        {
          "internalType": "string",
          "name": "",
          "type": "string"
        }
      ],
      "stateMutability": "view",
      "type": "function"
    },
    {
      "inputs": [
        {
          "internalType": "uint256",
          "name": "id",
          "type": "uint256"
        }
      ],
      "name": "getMaxSupply",
      "outputs": [
        {
          "internalType": "uint256",
          "name": "",
          "type": "uint256"
        }
      ],
      "stateMutability": "view",
      "type": "function"
    },
    {
      "inputs": [
        {
          "internalType": "uint256",
          "name": "id",
          "type": "uint256"
        }
      ],
      "name": "getTotalSupply",
      "outputs": [
        {
          "internalType": "uint256",
          "name": "",
          "type": "uint256"
        }
      ],
      "stateMutability": "view",
      "type": "function"
    },
    {
      "inputs": [
        {
          "internalType": "uint256",
          "name": "id",
          "type": "uint256"
        }
      ],
      "name": "getWeisPrice",
      "outputs": [
        {
          "internalType": "uint256",
          "name": "",
          "type": "uint256"
        }
      ],
      "stateMutability": "view",
      "type": "function"
    },
    {
      "inputs": [
        {
          "internalType": "uint256",
          "name": "id",
          "type": "uint256"
        },
        {
          "internalType": "uint256",
          "name": "amount",
          "type": "uint256"
        }
      ],
      "name": "mintFurniture",
      "outputs": [],
      "stateMutability": "payable",
      "type": "function"
    },
    {
      "inputs": [
        {
          "internalType": "uint256[]",
          "name": "ids",
          "type": "uint256[]"
        },
        {
          "internalType": "uint256[]",
          "name": "amounts",
          "type": "uint256[]"
        }
      ],
      "name": "mintBatchFurnitures",
      "outputs": [],
      "stateMutability": "payable",
      "type": "function"
    }
  ],
  "bytecode": "0x60806040523480156200001157600080fd5b506040518060400160405280600b81526020017f69736f74696c652e636f6d00000000000000000000000000000000000000000081525062000059816200011160201b60201c565b5060006200006c6200012d60201b60201c565b905080600360006101000a81548173ffffffffffffffffffffffffffffffffffffffff021916908373ffffffffffffffffffffffffffffffffffffffff1602179055508073ffffffffffffffffffffffffffffffffffffffff16600073ffffffffffffffffffffffffffffffffffffffff167f8be0079c531659141344cd1fd0a4f28419497f9722a3daafe3b4186f6b6457e060405160405180910390a3506200024a565b80600290805190602001906200012992919062000135565b5050565b600033905090565b8280546200014390620001e5565b90600052602060002090601f016020900481019282620001675760008555620001b3565b82601f106200018257805160ff1916838001178555620001b3565b82800160010185558215620001b3579182015b82811115620001b257825182559160200191906001019062000195565b5b509050620001c29190620001c6565b5090565b5b80821115620001e1576000816000905550600101620001c7565b5090565b60006002820490506001821680620001fe57607f821691505b602082108114156200021557620002146200021b565b5b50919050565b7f4e487b7100000000000000000000000000000000000000000000000000000000600052602260045260246000fd5b613b07806200025a6000396000f3fe6080604052600436106101085760003560e01c80638da5cb5b11610095578063b9f7f00211610064578063b9f7f0021461037f578063e985e9c51461039b578063ee151aaf146103d8578063f242432a14610415578063f2fde38b1461043e57610108565b80638da5cb5b146102d257806392ab723e146102fd578063a22cb4651461033a578063a903f6c31461036357610108565b80632eb2c2d6116100dc5780632eb2c2d6146101ed5780634e1273f4146102165780635e495d7414610253578063715018a61461029057806387e5c7e9146102a757610108565b8062fdd58e1461010d57806301ffc9a71461014a5780630e89341c14610187578063232b8592146101c4575b600080fd5b34801561011957600080fd5b50610134600480360381019061012f91906127e7565b610467565b60405161014191906130e0565b60405180910390f35b34801561015657600080fd5b50610171600480360381019061016c91906128fb565b610530565b60405161017e9190612ea3565b60405180910390f35b34801561019357600080fd5b506101ae60048036038101906101a991906129b4565b610612565b6040516101bb9190612ebe565b60405180910390f35b3480156101d057600080fd5b506101eb60048036038101906101e6919061294d565b6106ba565b005b3480156101f957600080fd5b50610214600480360381019061020f919061265d565b6107b5565b005b34801561022257600080fd5b5061023d60048036038101906102389190612823565b610bab565b60405161024a9190612e4a565b60405180910390f35b34801561025f57600080fd5b5061027a600480360381019061027591906129b4565b610d5c565b60405161028791906130e0565b60405180910390f35b34801561029c57600080fd5b506102a5610d7c565b005b3480156102b357600080fd5b506102bc610eb9565b6040516102c991906130e0565b60405180910390f35b3480156102de57600080fd5b506102e7610eca565b6040516102f49190612d6d565b60405180910390f35b34801561030957600080fd5b50610324600480360381019061031f91906129b4565b610ef4565b60405161033191906130e0565b60405180910390f35b34801561034657600080fd5b50610361600480360381019061035c91906127ab565b610f14565b005b61037d6004803603810190610378919061288f565b611095565b005b610399600480360381019061039491906129dd565b6112d3565b005b3480156103a757600080fd5b506103c260048036038101906103bd9190612621565b611433565b6040516103cf9190612ea3565b60405180910390f35b3480156103e457600080fd5b506103ff60048036038101906103fa91906129b4565b6114c7565b60405161040c91906130e0565b60405180910390f35b34801561042157600080fd5b5061043c6004803603810190610437919061271c565b6114e7565b005b34801561044a57600080fd5b50610465600480360381019061046091906125f8565b6117ff565b005b60008073ffffffffffffffffffffffffffffffffffffffff168373ffffffffffffffffffffffffffffffffffffffff1614156104d8576040517f08c379a00000000000000000000000000000000000000000000000000000000081526004016104cf90612f20565b60405180910390fd5b60008083815260200190815260200160002060008473ffffffffffffffffffffffffffffffffffffffff1673ffffffffffffffffffffffffffffffffffffffff16815260200190815260200160002054905092915050565b60007fd9b67a26000000000000000000000000000000000000000000000000000000007bffffffffffffffffffffffffffffffffffffffffffffffffffffffff1916827bffffffffffffffffffffffffffffffffffffffffffffffffffffffff191614806105fb57507f0e89341c000000000000000000000000000000000000000000000000000000007bffffffffffffffffffffffffffffffffffffffffffffffffffffffff1916827bffffffffffffffffffffffffffffffffffffffffffffffffffffffff1916145b8061060b575061060a826119ab565b5b9050919050565b60606005600083815260200190815260200160002060000180546106359061340e565b80601f01602080910402602001604051908101604052809291908181526020018280546106619061340e565b80156106ae5780601f10610683576101008083540402835291602001916106ae565b820191906000526020600020905b81548152906001019060200180831161069157829003601f168201915b50505050509050919050565b6106c2611a15565b73ffffffffffffffffffffffffffffffffffffffff166106e0610eca565b73ffffffffffffffffffffffffffffffffffffffff1614610736576040517f08c379a000000000000000000000000000000000000000000000000000000000815260040161072d90613000565b60405180910390fd5b60006107426004611a1d565b90508360056000838152602001908152602001600020600001908051906020019061076e9291906122f0565b508260056000838152602001908152602001600020600101819055508160056000838152602001908152602001600020600201819055506107af6004611a2b565b50505050565b81518351146107f9576040517f08c379a00000000000000000000000000000000000000000000000000000000081526004016107f0906130a0565b60405180910390fd5b600073ffffffffffffffffffffffffffffffffffffffff168473ffffffffffffffffffffffffffffffffffffffff161415610869576040517f08c379a000000000000000000000000000000000000000000000000000000000815260040161086090612fa0565b60405180910390fd5b610871611a15565b73ffffffffffffffffffffffffffffffffffffffff168573ffffffffffffffffffffffffffffffffffffffff1614806108b757506108b6856108b1611a15565b611433565b5b6108f6576040517f08c379a00000000000000000000000000000000000000000000000000000000081526004016108ed90612fc0565b60405180910390fd5b6000610900611a15565b9050610910818787878787611a41565b60005b8451811015610b16576000858281518110610957577f4e487b7100000000000000000000000000000000000000000000000000000000600052603260045260246000fd5b60200260200101519050600085838151811061099c577f4e487b7100000000000000000000000000000000000000000000000000000000600052603260045260246000fd5b60200260200101519050600080600084815260200190815260200160002060008b73ffffffffffffffffffffffffffffffffffffffff1673ffffffffffffffffffffffffffffffffffffffff16815260200190815260200160002054905081811015610a3d576040517f08c379a0000000000000000000000000000000000000000000000000000000008152600401610a3490612fe0565b60405180910390fd5b8181610a499190613324565b60008085815260200190815260200160002060008c73ffffffffffffffffffffffffffffffffffffffff1673ffffffffffffffffffffffffffffffffffffffff168152602001908152602001600020819055508160008085815260200190815260200160002060008b73ffffffffffffffffffffffffffffffffffffffff1673ffffffffffffffffffffffffffffffffffffffff1681526020019081526020016000206000828254610afb9190613274565b9250508190555050505080610b0f90613471565b9050610913565b508473ffffffffffffffffffffffffffffffffffffffff168673ffffffffffffffffffffffffffffffffffffffff168273ffffffffffffffffffffffffffffffffffffffff167f4a39dc06d4c0dbc64b70af90fd698a233a518aa5d07e595d983b8c0526c8f7fb8787604051610b8d929190612e6c565b60405180910390a4610ba3818787878787611a49565b505050505050565b60608151835114610bf1576040517f08c379a0000000000000000000000000000000000000000000000000000000008152600401610be890613080565b60405180910390fd5b6000835167ffffffffffffffff811115610c34577f4e487b7100000000000000000000000000000000000000000000000000000000600052604160045260246000fd5b604051908082528060200260200182016040528015610c625781602001602082028036833780820191505090505b50905060005b8451811015610d5157610cfb858281518110610cad577f4e487b7100000000000000000000000000000000000000000000000000000000600052603260045260246000fd5b6020026020010151858381518110610cee577f4e487b7100000000000000000000000000000000000000000000000000000000600052603260045260246000fd5b6020026020010151610467565b828281518110610d34577f4e487b7100000000000000000000000000000000000000000000000000000000600052603260045260246000fd5b60200260200101818152505080610d4a90613471565b9050610c68565b508091505092915050565b600060056000838152602001908152602001600020600101549050919050565b610d84611a15565b73ffffffffffffffffffffffffffffffffffffffff16610da2610eca565b73ffffffffffffffffffffffffffffffffffffffff1614610df8576040517f08c379a0000000000000000000000000000000000000000000000000000000008152600401610def90613000565b60405180910390fd5b600073ffffffffffffffffffffffffffffffffffffffff16600360009054906101000a900473ffffffffffffffffffffffffffffffffffffffff1673ffffffffffffffffffffffffffffffffffffffff167f8be0079c531659141344cd1fd0a4f28419497f9722a3daafe3b4186f6b6457e060405160405180910390a36000600360006101000a81548173ffffffffffffffffffffffffffffffffffffffff021916908373ffffffffffffffffffffffffffffffffffffffff160217905550565b6000610ec56004611a1d565b905090565b6000600360009054906101000a900473ffffffffffffffffffffffffffffffffffffffff16905090565b600060056000838152602001908152602001600020600301549050919050565b8173ffffffffffffffffffffffffffffffffffffffff16610f33611a15565b73ffffffffffffffffffffffffffffffffffffffff161415610f8a576040517f08c379a0000000000000000000000000000000000000000000000000000000008152600401610f8190613060565b60405180910390fd5b8060016000610f97611a15565b73ffffffffffffffffffffffffffffffffffffffff1673ffffffffffffffffffffffffffffffffffffffff16815260200190815260200160002060008473ffffffffffffffffffffffffffffffffffffffff1673ffffffffffffffffffffffffffffffffffffffff16815260200190815260200160002060006101000a81548160ff0219169083151502179055508173ffffffffffffffffffffffffffffffffffffffff16611044611a15565b73ffffffffffffffffffffffffffffffffffffffff167f17307eab39ab6107e8899845ad3d59bd9653f200f220920489ca2b5937696c31836040516110899190612ea3565b60405180910390a35050565b80518251146110d9576040517f08c379a00000000000000000000000000000000000000000000000000000000081526004016110d0906130a0565b60405180910390fd5b6000805b8351811015611270576000848281518110611121577f4e487b7100000000000000000000000000000000000000000000000000000000600052603260045260246000fd5b602002602001015190506000848381518110611166577f4e487b7100000000000000000000000000000000000000000000000000000000600052603260045260246000fd5b60200260200101519050600081116111b3576040517f08c379a00000000000000000000000000000000000000000000000000000000081526004016111aa90613040565b60405180910390fd5b60056000838152602001908152602001600020600101548160056000858152602001908152602001600020600301546111ec9190613274565b1061122c576040517f08c379a000000000000000000000000000000000000000000000000000000000815260040161122390613020565b60405180910390fd5b80600560008481526020019081526020016000206002015461124e91906132ca565b846112599190613274565b93505050808061126890613471565b9150506110dd565b503481146112b3576040517f08c379a00000000000000000000000000000000000000000000000000000000081526004016112aa90612f80565b60405180910390fd5b6112ce33848460405180602001604052806000815250611c30565b505050565b806005600084815260200190815260200160002060030160008282546112f99190613274565b9250508190555060008111611343576040517f08c379a000000000000000000000000000000000000000000000000000000000815260040161133a90613040565b60405180910390fd5b60056000838152602001908152602001600020600101546005600084815260200190815260200160002060030154106113b1576040517f08c379a00000000000000000000000000000000000000000000000000000000081526004016113a890613020565b60405180910390fd5b348160056000858152602001908152602001600020600201546113d491906132ca565b14611414576040517f08c379a000000000000000000000000000000000000000000000000000000000815260040161140b90612f80565b60405180910390fd5b61142f33838360405180602001604052806000815250611e9a565b5050565b6000600160008473ffffffffffffffffffffffffffffffffffffffff1673ffffffffffffffffffffffffffffffffffffffff16815260200190815260200160002060008373ffffffffffffffffffffffffffffffffffffffff1673ffffffffffffffffffffffffffffffffffffffff16815260200190815260200160002060009054906101000a900460ff16905092915050565b600060056000838152602001908152602001600020600201549050919050565b600073ffffffffffffffffffffffffffffffffffffffff168473ffffffffffffffffffffffffffffffffffffffff161415611557576040517f08c379a000000000000000000000000000000000000000000000000000000000815260040161154e90612fa0565b60405180910390fd5b61155f611a15565b73ffffffffffffffffffffffffffffffffffffffff168573ffffffffffffffffffffffffffffffffffffffff1614806115a557506115a48561159f611a15565b611433565b5b6115e4576040517f08c379a00000000000000000000000000000000000000000000000000000000081526004016115db90612f60565b60405180910390fd5b60006115ee611a15565b905061160e8187876115ff88612030565b61160888612030565b87611a41565b600080600086815260200190815260200160002060008873ffffffffffffffffffffffffffffffffffffffff1673ffffffffffffffffffffffffffffffffffffffff168152602001908152602001600020549050838110156116a5576040517f08c379a000000000000000000000000000000000000000000000000000000000815260040161169c90612fe0565b60405180910390fd5b83816116b19190613324565b60008087815260200190815260200160002060008973ffffffffffffffffffffffffffffffffffffffff1673ffffffffffffffffffffffffffffffffffffffff168152602001908152602001600020819055508360008087815260200190815260200160002060008873ffffffffffffffffffffffffffffffffffffffff1673ffffffffffffffffffffffffffffffffffffffff16815260200190815260200160002060008282546117639190613274565b925050819055508573ffffffffffffffffffffffffffffffffffffffff168773ffffffffffffffffffffffffffffffffffffffff168373ffffffffffffffffffffffffffffffffffffffff167fc3d58168c5ae7397731d063d5bbf3d657854427343f4c083240f7aacaa2d0f6288886040516117e09291906130fb565b60405180910390a46117f68288888888886120f6565b50505050505050565b611807611a15565b73ffffffffffffffffffffffffffffffffffffffff16611825610eca565b73ffffffffffffffffffffffffffffffffffffffff161461187b576040517f08c379a000000000000000000000000000000000000000000000000000000000815260040161187290613000565b60405180910390fd5b600073ffffffffffffffffffffffffffffffffffffffff168173ffffffffffffffffffffffffffffffffffffffff1614156118eb576040517f08c379a00000000000000000000000000000000000000000000000000000000081526004016118e290612f40565b60405180910390fd5b8073ffffffffffffffffffffffffffffffffffffffff16600360009054906101000a900473ffffffffffffffffffffffffffffffffffffffff1673ffffffffffffffffffffffffffffffffffffffff167f8be0079c531659141344cd1fd0a4f28419497f9722a3daafe3b4186f6b6457e060405160405180910390a380600360006101000a81548173ffffffffffffffffffffffffffffffffffffffff021916908373ffffffffffffffffffffffffffffffffffffffff16021790555050565b60007f01ffc9a7000000000000000000000000000000000000000000000000000000007bffffffffffffffffffffffffffffffffffffffffffffffffffffffff1916827bffffffffffffffffffffffffffffffffffffffffffffffffffffffff1916149050919050565b600033905090565b600081600001549050919050565b6001816000016000828254019250508190555050565b505050505050565b611a688473ffffffffffffffffffffffffffffffffffffffff166122dd565b15611c28578373ffffffffffffffffffffffffffffffffffffffff1663bc197c8187878686866040518663ffffffff1660e01b8152600401611aae959493929190612d88565b602060405180830381600087803b158015611ac857600080fd5b505af1925050508015611af957506040513d601f19601f82011682018060405250810190611af69190612924565b60015b611b9f57611b05613547565b806308c379a01415611b625750611b1a6139df565b80611b255750611b64565b806040517f08c379a0000000000000000000000000000000000000000000000000000000008152600401611b599190612ebe565b60405180910390fd5b505b6040517f08c379a0000000000000000000000000000000000000000000000000000000008152600401611b9690612ee0565b60405180910390fd5b63bc197c8160e01b7bffffffffffffffffffffffffffffffffffffffffffffffffffffffff1916817bffffffffffffffffffffffffffffffffffffffffffffffffffffffff191614611c26576040517f08c379a0000000000000000000000000000000000000000000000000000000008152600401611c1d90612f00565b60405180910390fd5b505b505050505050565b600073ffffffffffffffffffffffffffffffffffffffff168473ffffffffffffffffffffffffffffffffffffffff161415611ca0576040517f08c379a0000000000000000000000000000000000000000000000000000000008152600401611c97906130c0565b60405180910390fd5b8151835114611ce4576040517f08c379a0000000000000000000000000000000000000000000000000000000008152600401611cdb906130a0565b60405180910390fd5b6000611cee611a15565b9050611cff81600087878787611a41565b60005b8451811015611e0457838181518110611d44577f4e487b7100000000000000000000000000000000000000000000000000000000600052603260045260246000fd5b6020026020010151600080878481518110611d88577f4e487b7100000000000000000000000000000000000000000000000000000000600052603260045260246000fd5b6020026020010151815260200190815260200160002060008873ffffffffffffffffffffffffffffffffffffffff1673ffffffffffffffffffffffffffffffffffffffff1681526020019081526020016000206000828254611dea9190613274565b925050819055508080611dfc90613471565b915050611d02565b508473ffffffffffffffffffffffffffffffffffffffff16600073ffffffffffffffffffffffffffffffffffffffff168273ffffffffffffffffffffffffffffffffffffffff167f4a39dc06d4c0dbc64b70af90fd698a233a518aa5d07e595d983b8c0526c8f7fb8787604051611e7c929190612e6c565b60405180910390a4611e9381600087878787611a49565b5050505050565b600073ffffffffffffffffffffffffffffffffffffffff168473ffffffffffffffffffffffffffffffffffffffff161415611f0a576040517f08c379a0000000000000000000000000000000000000000000000000000000008152600401611f01906130c0565b60405180910390fd5b6000611f14611a15565b9050611f3581600087611f2688612030565b611f2f88612030565b87611a41565b8260008086815260200190815260200160002060008773ffffffffffffffffffffffffffffffffffffffff1673ffffffffffffffffffffffffffffffffffffffff1681526020019081526020016000206000828254611f949190613274565b925050819055508473ffffffffffffffffffffffffffffffffffffffff16600073ffffffffffffffffffffffffffffffffffffffff168273ffffffffffffffffffffffffffffffffffffffff167fc3d58168c5ae7397731d063d5bbf3d657854427343f4c083240f7aacaa2d0f6287876040516120129291906130fb565b60405180910390a4612029816000878787876120f6565b5050505050565b60606000600167ffffffffffffffff811115612075577f4e487b7100000000000000000000000000000000000000000000000000000000600052604160045260246000fd5b6040519080825280602002602001820160405280156120a35781602001602082028036833780820191505090505b50905082816000815181106120e1577f4e487b7100000000000000000000000000000000000000000000000000000000600052603260045260246000fd5b60200260200101818152505080915050919050565b6121158473ffffffffffffffffffffffffffffffffffffffff166122dd565b156122d5578373ffffffffffffffffffffffffffffffffffffffff1663f23a6e6187878686866040518663ffffffff1660e01b815260040161215b959493929190612df0565b602060405180830381600087803b15801561217557600080fd5b505af19250505080156121a657506040513d601f19601f820116820180604052508101906121a39190612924565b60015b61224c576121b2613547565b806308c379a0141561220f57506121c76139df565b806121d25750612211565b806040517f08c379a00000000000000000000000000000000000000000000000000000000081526004016122069190612ebe565b60405180910390fd5b505b6040517f08c379a000000000000000000000000000000000000000000000000000000000815260040161224390612ee0565b60405180910390fd5b63f23a6e6160e01b7bffffffffffffffffffffffffffffffffffffffffffffffffffffffff1916817bffffffffffffffffffffffffffffffffffffffffffffffffffffffff1916146122d3576040517f08c379a00000000000000000000000000000000000000000000000000000000081526004016122ca90612f00565b60405180910390fd5b505b505050505050565b600080823b905060008111915050919050565b8280546122fc9061340e565b90600052602060002090601f01602090048101928261231e5760008555612365565b82601f1061233757805160ff1916838001178555612365565b82800160010185558215612365579182015b82811115612364578251825591602001919060010190612349565b5b5090506123729190612376565b5090565b5b8082111561238f576000816000905550600101612377565b5090565b60006123a66123a184613149565b613124565b905080838252602082019050828560208602820111156123c557600080fd5b60005b858110156123f557816123db88826124e7565b8452602084019350602083019250506001810190506123c8565b5050509392505050565b600061241261240d84613175565b613124565b9050808382526020820190508285602086028201111561243157600080fd5b60005b85811015612461578161244788826125e3565b845260208401935060208301925050600181019050612434565b5050509392505050565b600061247e612479846131a1565b613124565b90508281526020810184848401111561249657600080fd5b6124a18482856133cc565b509392505050565b60006124bc6124b7846131d2565b613124565b9050828152602081018484840111156124d457600080fd5b6124df8482856133cc565b509392505050565b6000813590506124f681613a75565b92915050565b600082601f83011261250d57600080fd5b813561251d848260208601612393565b91505092915050565b600082601f83011261253757600080fd5b81356125478482602086016123ff565b91505092915050565b60008135905061255f81613a8c565b92915050565b60008135905061257481613aa3565b92915050565b60008151905061258981613aa3565b92915050565b600082601f8301126125a057600080fd5b81356125b084826020860161246b565b91505092915050565b600082601f8301126125ca57600080fd5b81356125da8482602086016124a9565b91505092915050565b6000813590506125f281613aba565b92915050565b60006020828403121561260a57600080fd5b6000612618848285016124e7565b91505092915050565b6000806040838503121561263457600080fd5b6000612642858286016124e7565b9250506020612653858286016124e7565b9150509250929050565b600080600080600060a0868803121561267557600080fd5b6000612683888289016124e7565b9550506020612694888289016124e7565b945050604086013567ffffffffffffffff8111156126b157600080fd5b6126bd88828901612526565b935050606086013567ffffffffffffffff8111156126da57600080fd5b6126e688828901612526565b925050608086013567ffffffffffffffff81111561270357600080fd5b61270f8882890161258f565b9150509295509295909350565b600080600080600060a0868803121561273457600080fd5b6000612742888289016124e7565b9550506020612753888289016124e7565b9450506040612764888289016125e3565b9350506060612775888289016125e3565b925050608086013567ffffffffffffffff81111561279257600080fd5b61279e8882890161258f565b9150509295509295909350565b600080604083850312156127be57600080fd5b60006127cc858286016124e7565b92505060206127dd85828601612550565b9150509250929050565b600080604083850312156127fa57600080fd5b6000612808858286016124e7565b9250506020612819858286016125e3565b9150509250929050565b6000806040838503121561283657600080fd5b600083013567ffffffffffffffff81111561285057600080fd5b61285c858286016124fc565b925050602083013567ffffffffffffffff81111561287957600080fd5b61288585828601612526565b9150509250929050565b600080604083850312156128a257600080fd5b600083013567ffffffffffffffff8111156128bc57600080fd5b6128c885828601612526565b925050602083013567ffffffffffffffff8111156128e557600080fd5b6128f185828601612526565b9150509250929050565b60006020828403121561290d57600080fd5b600061291b84828501612565565b91505092915050565b60006020828403121561293657600080fd5b60006129448482850161257a565b91505092915050565b60008060006060848603121561296257600080fd5b600084013567ffffffffffffffff81111561297c57600080fd5b612988868287016125b9565b9350506020612999868287016125e3565b92505060406129aa868287016125e3565b9150509250925092565b6000602082840312156129c657600080fd5b60006129d4848285016125e3565b91505092915050565b600080604083850312156129f057600080fd5b60006129fe858286016125e3565b9250506020612a0f858286016125e3565b9150509250929050565b6000612a258383612d4f565b60208301905092915050565b612a3a81613358565b82525050565b6000612a4b82613213565b612a558185613241565b9350612a6083613203565b8060005b83811015612a91578151612a788882612a19565b9750612a8383613234565b925050600181019050612a64565b5085935050505092915050565b612aa78161336a565b82525050565b6000612ab88261321e565b612ac28185613252565b9350612ad28185602086016133db565b612adb81613569565b840191505092915050565b6000612af182613229565b612afb8185613263565b9350612b0b8185602086016133db565b612b1481613569565b840191505092915050565b6000612b2c603483613263565b9150612b3782613587565b604082019050919050565b6000612b4f602883613263565b9150612b5a826135d6565b604082019050919050565b6000612b72602b83613263565b9150612b7d82613625565b604082019050919050565b6000612b95602683613263565b9150612ba082613674565b604082019050919050565b6000612bb8602983613263565b9150612bc3826136c3565b604082019050919050565b6000612bdb601f83613263565b9150612be682613712565b602082019050919050565b6000612bfe602583613263565b9150612c098261373b565b604082019050919050565b6000612c21603283613263565b9150612c2c8261378a565b604082019050919050565b6000612c44602a83613263565b9150612c4f826137d9565b604082019050919050565b6000612c67602083613263565b9150612c7282613828565b602082019050919050565b6000612c8a601283613263565b9150612c9582613851565b602082019050919050565b6000612cad601283613263565b9150612cb88261387a565b602082019050919050565b6000612cd0602983613263565b9150612cdb826138a3565b604082019050919050565b6000612cf3602983613263565b9150612cfe826138f2565b604082019050919050565b6000612d16602883613263565b9150612d2182613941565b604082019050919050565b6000612d39602183613263565b9150612d4482613990565b604082019050919050565b612d58816133c2565b82525050565b612d67816133c2565b82525050565b6000602082019050612d826000830184612a31565b92915050565b600060a082019050612d9d6000830188612a31565b612daa6020830187612a31565b8181036040830152612dbc8186612a40565b90508181036060830152612dd08185612a40565b90508181036080830152612de48184612aad565b90509695505050505050565b600060a082019050612e056000830188612a31565b612e126020830187612a31565b612e1f6040830186612d5e565b612e2c6060830185612d5e565b8181036080830152612e3e8184612aad565b90509695505050505050565b60006020820190508181036000830152612e648184612a40565b905092915050565b60006040820190508181036000830152612e868185612a40565b90508181036020830152612e9a8184612a40565b90509392505050565b6000602082019050612eb86000830184612a9e565b92915050565b60006020820190508181036000830152612ed88184612ae6565b905092915050565b60006020820190508181036000830152612ef981612b1f565b9050919050565b60006020820190508181036000830152612f1981612b42565b9050919050565b60006020820190508181036000830152612f3981612b65565b9050919050565b60006020820190508181036000830152612f5981612b88565b9050919050565b60006020820190508181036000830152612f7981612bab565b9050919050565b60006020820190508181036000830152612f9981612bce565b9050919050565b60006020820190508181036000830152612fb981612bf1565b9050919050565b60006020820190508181036000830152612fd981612c14565b9050919050565b60006020820190508181036000830152612ff981612c37565b9050919050565b6000602082019050818103600083015261301981612c5a565b9050919050565b6000602082019050818103600083015261303981612c7d565b9050919050565b6000602082019050818103600083015261305981612ca0565b9050919050565b6000602082019050818103600083015261307981612cc3565b9050919050565b6000602082019050818103600083015261309981612ce6565b9050919050565b600060208201905081810360008301526130b981612d09565b9050919050565b600060208201905081810360008301526130d981612d2c565b9050919050565b60006020820190506130f56000830184612d5e565b92915050565b60006040820190506131106000830185612d5e565b61311d6020830184612d5e565b9392505050565b600061312e61313f565b905061313a8282613440565b919050565b6000604051905090565b600067ffffffffffffffff82111561316457613163613518565b5b602082029050602081019050919050565b600067ffffffffffffffff8211156131905761318f613518565b5b602082029050602081019050919050565b600067ffffffffffffffff8211156131bc576131bb613518565b5b6131c582613569565b9050602081019050919050565b600067ffffffffffffffff8211156131ed576131ec613518565b5b6131f682613569565b9050602081019050919050565b6000819050602082019050919050565b600081519050919050565b600081519050919050565b600081519050919050565b6000602082019050919050565b600082825260208201905092915050565b600082825260208201905092915050565b600082825260208201905092915050565b600061327f826133c2565b915061328a836133c2565b9250827fffffffffffffffffffffffffffffffffffffffffffffffffffffffffffffffff038211156132bf576132be6134ba565b5b828201905092915050565b60006132d5826133c2565b91506132e0836133c2565b9250817fffffffffffffffffffffffffffffffffffffffffffffffffffffffffffffffff0483118215151615613319576133186134ba565b5b828202905092915050565b600061332f826133c2565b915061333a836133c2565b92508282101561334d5761334c6134ba565b5b828203905092915050565b6000613363826133a2565b9050919050565b60008115159050919050565b60007fffffffff0000000000000000000000000000000000000000000000000000000082169050919050565b600073ffffffffffffffffffffffffffffffffffffffff82169050919050565b6000819050919050565b82818337600083830152505050565b60005b838110156133f95780820151818401526020810190506133de565b83811115613408576000848401525b50505050565b6000600282049050600182168061342657607f821691505b6020821081141561343a576134396134e9565b5b50919050565b61344982613569565b810181811067ffffffffffffffff8211171561346857613467613518565b5b80604052505050565b600061347c826133c2565b91507fffffffffffffffffffffffffffffffffffffffffffffffffffffffffffffffff8214156134af576134ae6134ba565b5b600182019050919050565b7f4e487b7100000000000000000000000000000000000000000000000000000000600052601160045260246000fd5b7f4e487b7100000000000000000000000000000000000000000000000000000000600052602260045260246000fd5b7f4e487b7100000000000000000000000000000000000000000000000000000000600052604160045260246000fd5b600060033d11156135665760046000803e61356360005161357a565b90505b90565b6000601f19601f8301169050919050565b60008160e01c9050919050565b7f455243313135353a207472616e7366657220746f206e6f6e204552433131353560008201527f526563656976657220696d706c656d656e746572000000000000000000000000602082015250565b7f455243313135353a204552433131353552656365697665722072656a6563746560008201527f6420746f6b656e73000000000000000000000000000000000000000000000000602082015250565b7f455243313135353a2062616c616e636520717565727920666f7220746865207a60008201527f65726f2061646472657373000000000000000000000000000000000000000000602082015250565b7f4f776e61626c653a206e6577206f776e657220697320746865207a65726f206160008201527f6464726573730000000000000000000000000000000000000000000000000000602082015250565b7f455243313135353a2063616c6c6572206973206e6f74206f776e6572206e6f7260008201527f20617070726f7665640000000000000000000000000000000000000000000000602082015250565b7f45746865722076616c75652073656e74206973206e6f7420636f727265637400600082015250565b7f455243313135353a207472616e7366657220746f20746865207a65726f20616460008201527f6472657373000000000000000000000000000000000000000000000000000000602082015250565b7f455243313135353a207472616e736665722063616c6c6572206973206e6f742060008201527f6f776e6572206e6f7220617070726f7665640000000000000000000000000000602082015250565b7f455243313135353a20696e73756666696369656e742062616c616e636520666f60008201527f72207472616e7366657200000000000000000000000000000000000000000000602082015250565b7f4f776e61626c653a2063616c6c6572206973206e6f7420746865206f776e6572600082015250565b7f45786365656473204d41585f535550504c590000000000000000000000000000600082015250565b7f616d6f756e742063616e6e6f7420626520300000000000000000000000000000600082015250565b7f455243313135353a2073657474696e6720617070726f76616c2073746174757360008201527f20666f722073656c660000000000000000000000000000000000000000000000602082015250565b7f455243313135353a206163636f756e747320616e6420696473206c656e67746860008201527f206d69736d617463680000000000000000000000000000000000000000000000602082015250565b7f455243313135353a2069647320616e6420616d6f756e7473206c656e6774682060008201527f6d69736d61746368000000000000000000000000000000000000000000000000602082015250565b7f455243313135353a206d696e7420746f20746865207a65726f2061646472657360008201527f7300000000000000000000000000000000000000000000000000000000000000602082015250565b600060443d10156139ef57613a72565b6139f761313f565b60043d036004823e80513d602482011167ffffffffffffffff82111715613a1f575050613a72565b808201805167ffffffffffffffff811115613a3d5750505050613a72565b80602083010160043d038501811115613a5a575050505050613a72565b613a6982602001850186613440565b82955050505050505b90565b613a7e81613358565b8114613a8957600080fd5b50565b613a958161336a565b8114613aa057600080fd5b50565b613aac81613376565b8114613ab757600080fd5b50565b613ac3816133c2565b8114613ace57600080fd5b5056fea264697066735822122047dae69b7bbe2e4e703fdb36d37baf09479e494285f7cfea45b7f0047a6a1e7a64736f6c63430008030033",
  "immutableReferences": {},
  "source": "// SPDX-License-Identifier: BUSL-1.1\r\n\r\npragma solidity ^0.8.0;\r\n\r\nimport \"@openzeppelin/contracts/token/ERC1155/ERC1155.sol\";\r\nimport \"@openzeppelin/contracts/access/Ownable.sol\";\r\nimport \"@openzeppelin/contracts/utils/Counters.sol\";\r\n\r\ncontract IsotileFurnitureV0 is ERC1155, Ownable {\r\n\r\n  using Counters for Counters.Counter;  \r\n  Counters.Counter private _furnitureIds;\r\n\r\n  struct Furniture {\r\n    string uri;\r\n    uint256 maxSupply;\r\n    uint256 weisPrice;\r\n    uint256 totalSupply;\r\n  }\r\n\r\n  // Mapping from furniture ID to furnitures\r\n  mapping (uint256 => Furniture) private _furnitures;\r\n  \r\n  constructor() ERC1155(\"isotile.com\") {}\r\n\r\n  // Get total furnitures added to isotile contract\r\n  function getTotalFurnitures() public view returns (uint256){\r\n    return _furnitureIds.current();\r\n  }\r\n\r\n  // Create a furniture\r\n  function addFurniture(string memory _globalUri, uint256 _maxSupply, uint256 _weisPrice) public onlyOwner {\r\n    uint256 newFurnitureId = _furnitureIds.current();\r\n\r\n    _furnitures[newFurnitureId].uri = _globalUri;\r\n    _furnitures[newFurnitureId].maxSupply = _maxSupply;\r\n    _furnitures[newFurnitureId].weisPrice = _weisPrice;\r\n\r\n    _furnitureIds.increment();\r\n  }\r\n\r\n  // Override get uri for a furniture ID\r\n  function uri(uint256 id) public view override returns (string memory) {\r\n    return _furnitures[id].uri;\r\n  }\r\n\r\n  // Get max supply for a furniture ID\r\n  function getMaxSupply(uint256 id) public view returns (uint256){\r\n    return _furnitures[id].maxSupply;\r\n  }\r\n\r\n  // Get count of furnitures minted for a furniture ID\r\n  function getTotalSupply(uint256 id) public view returns (uint256){\r\n    return _furnitures[id].totalSupply;\r\n  }\r\n\r\n  // Get price in weis of furniture ID\r\n  function getWeisPrice(uint256 id) public view returns (uint256){\r\n    return _furnitures[id].weisPrice;\r\n  }\r\n\r\n  // Mint one furniture\r\n  function mintFurniture(uint256 id, uint256 amount) public payable {\r\n    _furnitures[id].totalSupply += amount;\r\n\r\n    require(amount > 0, \"amount cannot be 0\");\r\n    require(_furnitures[id].totalSupply < _furnitures[id].maxSupply, \"Exceeds MAX_SUPPLY\");\r\n    require(_furnitures[id].weisPrice * amount == msg.value, \"Ether value sent is not correct\");\r\n\r\n    _mint(msg.sender, id, amount, \"\");\r\n  }\r\n\r\n  // Mint batch furnitures\r\n  function mintBatchFurnitures(uint256[] memory ids, uint256[] memory amounts) public payable {\r\n    require(ids.length == amounts.length, \"ERC1155: ids and amounts length mismatch\");\r\n\r\n    uint256 totalSum = 0;\r\n    for (uint i = 0; i < ids.length; i++) {\r\n      uint256 id = ids[i];\r\n      uint256 amount = amounts[i];\r\n\r\n      require(amount > 0, \"amount cannot be 0\");\r\n      require(_furnitures[id].totalSupply + amount < _furnitures[id].maxSupply, \"Exceeds MAX_SUPPLY\");\r\n\r\n      totalSum += _furnitures[id].weisPrice * amount;\r\n    }\r\n\r\n    require(totalSum == msg.value, \"Ether value sent is not correct\");\r\n\r\n    _mintBatch(msg.sender, ids, amounts, \"\");\r\n  }\r\n\r\n\r\n}",
  "sourcePath": "E:/otros/isotile/isotile-contracts/contracts/IsotileFurnitureV0.sol",
  "compiler": {
    "name": "solc",
    "version": "0.8.3+commit.8d00100c.Emscripten.clang"
  },
  "schemaVersion": "3.3.4",
  "updatedAt": "2021-04-06T23:41:05.839Z",
  "devdoc": {
    "kind": "dev",
    "methods": {
      "balanceOf(address,uint256)": {
        "details": "See {IERC1155-balanceOf}. Requirements: - `account` cannot be the zero address."
      },
      "balanceOfBatch(address[],uint256[])": {
        "details": "See {IERC1155-balanceOfBatch}. Requirements: - `accounts` and `ids` must have the same length."
      },
      "isApprovedForAll(address,address)": {
        "details": "See {IERC1155-isApprovedForAll}."
      },
      "owner()": {
        "details": "Returns the address of the current owner."
      },
      "renounceOwnership()": {
        "details": "Leaves the contract without owner. It will not be possible to call `onlyOwner` functions anymore. Can only be called by the current owner. NOTE: Renouncing ownership will leave the contract without an owner, thereby removing any functionality that is only available to the owner."
      },
      "safeBatchTransferFrom(address,address,uint256[],uint256[],bytes)": {
        "details": "See {IERC1155-safeBatchTransferFrom}."
      },
      "safeTransferFrom(address,address,uint256,uint256,bytes)": {
        "details": "See {IERC1155-safeTransferFrom}."
      },
      "setApprovalForAll(address,bool)": {
        "details": "See {IERC1155-setApprovalForAll}."
      },
      "supportsInterface(bytes4)": {
        "details": "See {IERC165-supportsInterface}."
      },
      "transferOwnership(address)": {
        "details": "Transfers ownership of the contract to a new account (`newOwner`). Can only be called by the current owner."
      }
    },
    "version": 1
  },
  "userdoc": {
    "kind": "user",
    "methods": {},
    "version": 1
  }
}