{
  "contractName": "IsotileFurniture",
  "abi": [
    {
      "inputs": [],
      "stateMutability": "nonpayable",
      "type": "constructor"
    },
    {
      "anonymous": false,
      "inputs": [
        {
          "indexed": true,
          "internalType": "address",
          "name": "account",
          "type": "address"
        },
        {
          "indexed": true,
          "internalType": "address",
          "name": "operator",
          "type": "address"
        },
        {
          "indexed": false,
          "internalType": "bool",
          "name": "approved",
          "type": "bool"
        }
      ],
      "name": "ApprovalForAll",
      "type": "event"
    },
    {
      "anonymous": false,
      "inputs": [
        {
          "indexed": true,
          "internalType": "uint256",
          "name": "id",
          "type": "uint256"
        }
      ],
      "name": "FurnitureAdded",
      "type": "event"
    },
    {
      "anonymous": false,
      "inputs": [
        {
          "indexed": true,
          "internalType": "address",
          "name": "previousOwner",
          "type": "address"
        },
        {
          "indexed": true,
          "internalType": "address",
          "name": "newOwner",
          "type": "address"
        }
      ],
      "name": "OwnershipTransferred",
      "type": "event"
    },
    {
      "anonymous": false,
      "inputs": [
        {
          "indexed": false,
          "internalType": "address",
          "name": "account",
          "type": "address"
        }
      ],
      "name": "Paused",
      "type": "event"
    },
    {
      "anonymous": false,
      "inputs": [
        {
          "indexed": true,
          "internalType": "address",
          "name": "operator",
          "type": "address"
        },
        {
          "indexed": true,
          "internalType": "address",
          "name": "from",
          "type": "address"
        },
        {
          "indexed": true,
          "internalType": "address",
          "name": "to",
          "type": "address"
        },
        {
          "indexed": false,
          "internalType": "uint256[]",
          "name": "ids",
          "type": "uint256[]"
        },
        {
          "indexed": false,
          "internalType": "uint256[]",
          "name": "values",
          "type": "uint256[]"
        }
      ],
      "name": "TransferBatch",
      "type": "event"
    },
    {
      "anonymous": false,
      "inputs": [
        {
          "indexed": true,
          "internalType": "address",
          "name": "operator",
          "type": "address"
        },
        {
          "indexed": true,
          "internalType": "address",
          "name": "from",
          "type": "address"
        },
        {
          "indexed": true,
          "internalType": "address",
          "name": "to",
          "type": "address"
        },
        {
          "indexed": false,
          "internalType": "uint256",
          "name": "id",
          "type": "uint256"
        },
        {
          "indexed": false,
          "internalType": "uint256",
          "name": "value",
          "type": "uint256"
        }
      ],
      "name": "TransferSingle",
      "type": "event"
    },
    {
      "anonymous": false,
      "inputs": [
        {
          "indexed": false,
          "internalType": "string",
          "name": "value",
          "type": "string"
        },
        {
          "indexed": true,
          "internalType": "uint256",
          "name": "id",
          "type": "uint256"
        }
      ],
      "name": "URI",
      "type": "event"
    },
    {
      "anonymous": false,
      "inputs": [
        {
          "indexed": false,
          "internalType": "address",
          "name": "account",
          "type": "address"
        }
      ],
      "name": "Unpaused",
      "type": "event"
    },
    {
      "inputs": [
        {
          "internalType": "address",
          "name": "account",
          "type": "address"
        },
        {
          "internalType": "uint256",
          "name": "id",
          "type": "uint256"
        }
      ],
      "name": "balanceOf",
      "outputs": [
        {
          "internalType": "uint256",
          "name": "",
          "type": "uint256"
        }
      ],
      "stateMutability": "view",
      "type": "function"
    },
    {
      "inputs": [
        {
          "internalType": "address[]",
          "name": "accounts",
          "type": "address[]"
        },
        {
          "internalType": "uint256[]",
          "name": "ids",
          "type": "uint256[]"
        }
      ],
      "name": "balanceOfBatch",
      "outputs": [
        {
          "internalType": "uint256[]",
          "name": "",
          "type": "uint256[]"
        }
      ],
      "stateMutability": "view",
      "type": "function"
    },
    {
      "inputs": [
        {
          "internalType": "address",
          "name": "account",
          "type": "address"
        },
        {
          "internalType": "address",
          "name": "operator",
          "type": "address"
        }
      ],
      "name": "isApprovedForAll",
      "outputs": [
        {
          "internalType": "bool",
          "name": "",
          "type": "bool"
        }
      ],
      "stateMutability": "view",
      "type": "function"
    },
    {
      "inputs": [],
      "name": "owner",
      "outputs": [
        {
          "internalType": "address",
          "name": "",
          "type": "address"
        }
      ],
      "stateMutability": "view",
      "type": "function"
    },
    {
      "inputs": [],
      "name": "paused",
      "outputs": [
        {
          "internalType": "bool",
          "name": "",
          "type": "bool"
        }
      ],
      "stateMutability": "view",
      "type": "function"
    },
    {
      "inputs": [],
      "name": "renounceOwnership",
      "outputs": [],
      "stateMutability": "nonpayable",
      "type": "function"
    },
    {
      "inputs": [
        {
          "internalType": "address",
          "name": "from",
          "type": "address"
        },
        {
          "internalType": "address",
          "name": "to",
          "type": "address"
        },
        {
          "internalType": "uint256[]",
          "name": "ids",
          "type": "uint256[]"
        },
        {
          "internalType": "uint256[]",
          "name": "amounts",
          "type": "uint256[]"
        },
        {
          "internalType": "bytes",
          "name": "data",
          "type": "bytes"
        }
      ],
      "name": "safeBatchTransferFrom",
      "outputs": [],
      "stateMutability": "nonpayable",
      "type": "function"
    },
    {
      "inputs": [
        {
          "internalType": "address",
          "name": "from",
          "type": "address"
        },
        {
          "internalType": "address",
          "name": "to",
          "type": "address"
        },
        {
          "internalType": "uint256",
          "name": "id",
          "type": "uint256"
        },
        {
          "internalType": "uint256",
          "name": "amount",
          "type": "uint256"
        },
        {
          "internalType": "bytes",
          "name": "data",
          "type": "bytes"
        }
      ],
      "name": "safeTransferFrom",
      "outputs": [],
      "stateMutability": "nonpayable",
      "type": "function"
    },
    {
      "inputs": [
        {
          "internalType": "address",
          "name": "operator",
          "type": "address"
        },
        {
          "internalType": "bool",
          "name": "approved",
          "type": "bool"
        }
      ],
      "name": "setApprovalForAll",
      "outputs": [],
      "stateMutability": "nonpayable",
      "type": "function"
    },
    {
      "inputs": [
        {
          "internalType": "bytes4",
          "name": "interfaceId",
          "type": "bytes4"
        }
      ],
      "name": "supportsInterface",
      "outputs": [
        {
          "internalType": "bool",
          "name": "",
          "type": "bool"
        }
      ],
      "stateMutability": "view",
      "type": "function"
    },
    {
      "inputs": [
        {
          "internalType": "address",
          "name": "newOwner",
          "type": "address"
        }
      ],
      "name": "transferOwnership",
      "outputs": [],
      "stateMutability": "nonpayable",
      "type": "function"
    },
    {
      "inputs": [],
      "name": "getTotalFurnitures",
      "outputs": [
        {
          "internalType": "uint256",
          "name": "",
          "type": "uint256"
        }
      ],
      "stateMutability": "view",
      "type": "function"
    },
    {
      "inputs": [
        {
          "internalType": "address",
          "name": "account",
          "type": "address"
        }
      ],
      "name": "getCountOfFurnituresBought",
      "outputs": [
        {
          "internalType": "uint256",
          "name": "",
          "type": "uint256"
        }
      ],
      "stateMutability": "view",
      "type": "function"
    },
    {
      "inputs": [
        {
          "internalType": "uint256",
          "name": "id",
          "type": "uint256"
        }
      ],
      "name": "uri",
      "outputs": [
        {
          "internalType": "string",
          "name": "",
          "type": "string"
        }
      ],
      "stateMutability": "view",
      "type": "function"
    },
    {
      "inputs": [
        {
          "internalType": "uint256",
          "name": "id",
          "type": "uint256"
        }
      ],
      "name": "getMaxSupply",
      "outputs": [
        {
          "internalType": "uint256",
          "name": "",
          "type": "uint256"
        }
      ],
      "stateMutability": "view",
      "type": "function"
    },
    {
      "inputs": [
        {
          "internalType": "uint256",
          "name": "id",
          "type": "uint256"
        }
      ],
      "name": "isPaidWithEther",
      "outputs": [
        {
          "internalType": "bool",
          "name": "",
          "type": "bool"
        }
      ],
      "stateMutability": "view",
      "type": "function"
    },
    {
      "inputs": [
        {
          "internalType": "uint256",
          "name": "id",
          "type": "uint256"
        }
      ],
      "name": "getPrice",
      "outputs": [
        {
          "internalType": "uint256",
          "name": "",
          "type": "uint256"
        }
      ],
      "stateMutability": "view",
      "type": "function"
    },
    {
      "inputs": [
        {
          "internalType": "uint256",
          "name": "id",
          "type": "uint256"
        }
      ],
      "name": "getTotalSupply",
      "outputs": [
        {
          "internalType": "uint256",
          "name": "",
          "type": "uint256"
        }
      ],
      "stateMutability": "view",
      "type": "function"
    },
    {
      "inputs": [
        {
          "internalType": "uint256",
          "name": "id",
          "type": "uint256"
        },
        {
          "internalType": "uint256",
          "name": "amount",
          "type": "uint256"
        }
      ],
      "name": "mintFurniture",
      "outputs": [],
      "stateMutability": "payable",
      "type": "function"
    },
    {
      "inputs": [
        {
          "internalType": "uint256[]",
          "name": "ids",
          "type": "uint256[]"
        },
        {
          "internalType": "uint256[]",
          "name": "amounts",
          "type": "uint256[]"
        }
      ],
      "name": "mintBatchFurnitures",
      "outputs": [],
      "stateMutability": "payable",
      "type": "function"
    },
    {
      "inputs": [
        {
          "internalType": "string",
          "name": "_furnitureUri",
          "type": "string"
        },
        {
          "internalType": "uint256",
          "name": "_maxSupply",
          "type": "uint256"
        },
        {
          "internalType": "bool",
          "name": "_isPaidWithEther",
          "type": "bool"
        },
        {
          "internalType": "uint256",
          "name": "_price",
          "type": "uint256"
        },
        {
          "internalType": "uint256",
          "name": "_saveFirstBuyerMaxTimestampAllowed",
          "type": "uint256"
        }
      ],
      "name": "addFurniture",
      "outputs": [],
      "stateMutability": "nonpayable",
      "type": "function"
    },
    {
      "inputs": [
        {
          "internalType": "address",
          "name": "tilesAddress",
          "type": "address"
        }
      ],
      "name": "setTilesInstance",
      "outputs": [],
      "stateMutability": "nonpayable",
      "type": "function"
    },
    {
      "inputs": [],
      "name": "pause",
      "outputs": [],
      "stateMutability": "nonpayable",
      "type": "function"
    },
    {
      "inputs": [],
      "name": "unpause",
      "outputs": [],
      "stateMutability": "nonpayable",
      "type": "function"
    },
    {
      "inputs": [],
      "name": "withdraw",
      "outputs": [],
      "stateMutability": "nonpayable",
      "type": "function"
    }
  ],
  "bytecode": "0x60806040523480156200001157600080fd5b506040805160208101909152600081526200002c816200009f565b506003805460ff19169055600062000043620000b8565b60038054610100600160a81b0319166101006001600160a01b03841690810291909117909155604051919250906000907f8be0079c531659141344cd1fd0a4f28419497f9722a3daafe3b4186f6b6457e0908290a350620001b8565b8051620000b4906002906020840190620000bc565b5050565b3390565b828054620000ca9062000162565b90600052602060002090601f016020900481019282620000ee576000855562000139565b82601f106200010957805160ff191683800117855562000139565b8280016001018555821562000139579182015b82811115620001395782518255916020019190600101906200011c565b50620001479291506200014b565b5090565b5b808211156200014757600081556001016200014c565b6002810460018216806200017757607f821691505b60208210811415620001b2577f4e487b7100000000000000000000000000000000000000000000000000000000600052602260045260246000fd5b50919050565b612a6d80620001c86000396000f3fe6080604052600436106101655760003560e01c80638da5cb5b116100d1578063b9f7f0021161008a578063eb2a986e11610064578063eb2a986e146103ef578063eccd44e91461040f578063f242432a1461042f578063f2fde38b1461044f57610165565b8063b9f7f0021461039c578063e7572230146103af578063e985e9c5146103cf57610165565b80638da5cb5b146102e75780638f78ea561461030957806392ab723e146103295780639be3035414610349578063a22cb46514610369578063a903f6c31461038957610165565b80634e1273f4116101235780634e1273f4146102465780635c975abb146102735780635e495d7414610288578063715018a6146102a85780638456cb59146102bd57806387e5c7e9146102d257610165565b8062fdd58e1461016a57806301ffc9a7146101a05780630e89341c146101cd5780632eb2c2d6146101fa5780633ccfd60b1461021c5780633f4ba83a14610231575b600080fd5b34801561017657600080fd5b5061018a610185366004611f0d565b61046f565b604051610197919061283e565b60405180910390f35b3480156101ac57600080fd5b506101c06101bb36600461203e565b6104c6565b60405161019791906122d7565b3480156101d957600080fd5b506101ed6101e83660046120f0565b61050e565b60405161019791906122e2565b34801561020657600080fd5b5061021a610215366004611ddb565b6105b0565b005b34801561022857600080fd5b5061021a610816565b34801561023d57600080fd5b5061021a610889565b34801561025257600080fd5b50610266610261366004611f36565b6108d2565b6040516101979190612296565b34801561027f57600080fd5b506101c06109f2565b34801561029457600080fd5b5061018a6102a33660046120f0565b6109fc565b3480156102b457600080fd5b5061021a610a11565b3480156102c957600080fd5b5061021a610aa0565b3480156102de57600080fd5b5061018a610ae7565b3480156102f357600080fd5b506102fc610af8565b60405161019791906121c6565b34801561031557600080fd5b5061018a610324366004611d8f565b610b0c565b34801561033557600080fd5b5061018a6103443660046120f0565b610b27565b34801561035557600080fd5b5061021a610364366004612076565b610b3c565b34801561037557600080fd5b5061021a610384366004611ee4565b610c55565b61021a610397366004611ff4565b610d23565b61021a6103aa366004612120565b611073565b3480156103bb57600080fd5b5061018a6103ca3660046120f0565b6112f4565b3480156103db57600080fd5b506101c06103ea366004611da9565b611309565b3480156103fb57600080fd5b506101c061040a3660046120f0565b611337565b34801561041b57600080fd5b5061021a61042a366004611d8f565b61134f565b34801561043b57600080fd5b5061021a61044a366004611e81565b6113b0565b34801561045b57600080fd5b5061021a61046a366004611d8f565b611546565b60006001600160a01b0383166104a05760405162461bcd60e51b8152600401610497906123e9565b60405180910390fd5b506000908152602081815260408083206001600160a01b03949094168352929052205490565b60006001600160e01b03198216636cdb3d1360e11b14806104f757506001600160e01b031982166303a24d0760e21b145b80610506575061050682611612565b90505b919050565b600081815260076020526040902080546060919061052b906128f1565b80601f0160208091040260200160405190810160405280929190818152602001828054610557906128f1565b80156105a45780601f10610579576101008083540402835291602001916105a4565b820191906000526020600020905b81548152906001019060200180831161058757829003601f168201915b50505050509050919050565b81518351146105d15760405162461bcd60e51b8152600401610497906127b5565b6001600160a01b0384166105f75760405162461bcd60e51b8152600401610497906125b5565b6105ff61162b565b6001600160a01b0316856001600160a01b031614806106255750610625856103ea61162b565b6106415760405162461bcd60e51b8152600401610497906125fa565b600061064b61162b565b905061065b81878787878761162f565b60005b84518110156107a857600085828151811061068957634e487b7160e01b600052603260045260246000fd5b6020026020010151905060008583815181106106b557634e487b7160e01b600052603260045260246000fd5b602090810291909101810151600084815280835260408082206001600160a01b038e1683529093529190912054909150818110156107055760405162461bcd60e51b81526004016104979061264c565b61070f82826128da565b60008085815260200190815260200160002060008c6001600160a01b03166001600160a01b03168152602001908152602001600020819055508160008085815260200190815260200160002060008b6001600160a01b03166001600160a01b03168152602001908152602001600020600082825461078d91906128a3565b92505081905550505050806107a19061292c565b905061065e565b50846001600160a01b0316866001600160a01b0316826001600160a01b03167f4a39dc06d4c0dbc64b70af90fd698a233a518aa5d07e595d983b8c0526c8f7fb87876040516107f89291906122a9565b60405180910390a461080e81878787878761163d565b505050505050565b61081e61162b565b6001600160a01b031661082f610af8565b6001600160a01b0316146108555760405162461bcd60e51b815260040161049790612696565b604051303190339082156108fc029083906000818181858888f19350505050158015610885573d6000803e3d6000fd5b5050565b61089161162b565b6001600160a01b03166108a2610af8565b6001600160a01b0316146108c85760405162461bcd60e51b815260040161049790612696565b6108d061174b565b565b606081518351146108f55760405162461bcd60e51b81526004016104979061276c565b6000835167ffffffffffffffff81111561091f57634e487b7160e01b600052604160045260246000fd5b604051908082528060200260200182016040528015610948578160200160208202803683370190505b50905060005b84518110156109ea576109af85828151811061097a57634e487b7160e01b600052603260045260246000fd5b60200260200101518583815181106109a257634e487b7160e01b600052603260045260246000fd5b602002602001015161046f565b8282815181106109cf57634e487b7160e01b600052603260045260246000fd5b60209081029190910101526109e38161292c565b905061094e565b509392505050565b60035460ff165b90565b60009081526007602052604090206001015490565b610a1961162b565b6001600160a01b0316610a2a610af8565b6001600160a01b031614610a505760405162461bcd60e51b815260040161049790612696565b60035460405160009161010090046001600160a01b0316907f8be0079c531659141344cd1fd0a4f28419497f9722a3daafe3b4186f6b6457e0908390a360038054610100600160a81b0319169055565b610aa861162b565b6001600160a01b0316610ab9610af8565b6001600160a01b031614610adf5760405162461bcd60e51b815260040161049790612696565b6108d06117b9565b6000610af36004611814565b905090565b60035461010090046001600160a01b031690565b6001600160a01b031660009081526006602052604090205490565b60009081526007602052604090206004015490565b610b4461162b565b6001600160a01b0316610b55610af8565b6001600160a01b031614610b7b5760405162461bcd60e51b815260040161049790612696565b6000610b876004611814565b6040805160c0810182528881526020808201899052871515828401526060820187905260006080830181905260a0830187905284815260078252929092208151805194955091939092610bde928492910190611be5565b506020820151600182015560408083015160028301805460ff1916911515919091179055606083015160038301556080830151600483015560a0909201516005909101555181907ff362febae3157a13119e0c21bdf9a11caeb3ccef1d804805c1845cb032ebf90f90600090a261080e6004611818565b816001600160a01b0316610c6761162b565b6001600160a01b03161415610c8e5760405162461bcd60e51b815260040161049790612723565b8060016000610c9b61162b565b6001600160a01b03908116825260208083019390935260409182016000908120918716808252919093529120805460ff191692151592909217909155610cdf61162b565b6001600160a01b03167f17307eab39ab6107e8899845ad3d59bd9653f200f220920489ca2b5937696c3183604051610d1791906122d7565b60405180910390a35050565b8051825114610d445760405162461bcd60e51b8152600401610497906127b5565b6000806000805b8551811015610efd576000868281518110610d7657634e487b7160e01b600052603260045260246000fd5b602002602001015190506000868381518110610da257634e487b7160e01b600052603260045260246000fd5b6020026020010151905060008111610dcc5760405162461bcd60e51b8152600401610497906126f7565b60008281526007602052604090206005015415801590610dfc575060008281526007602052604090206005015442105b15610e0e57610e0b81876128a3565b95505b60008281526007602052604090206001810154600490910154610e329083906128a3565b1115610e505760405162461bcd60e51b8152600401610497906126cb565b60008281526007602052604081206004018054839290610e719084906128a3565b909155505060008281526007602052604090206002015460ff1615610ebe57600082815260076020526040902060030154610ead9082906128bb565b610eb790866128a3565b9450610ee8565b600082815260076020526040902060030154610edb9082906128bb565b610ee590856128a3565b93505b50508080610ef59061292c565b915050610d4b565b50813414610f1d5760405162461bcd60e51b81526004016104979061250f565b8015611026576005546040516370a0823160e01b815282916001600160a01b0316906370a0823190610f539033906004016121c6565b60206040518083038186803b158015610f6b57600080fd5b505afa158015610f7f573d6000803e3d6000fd5b505050506040513d601f19601f82011682018060405250810190610fa39190612108565b1015610fc15760405162461bcd60e51b815260040161049790612349565b60055460405163af7d6ca360e01b81526001600160a01b039091169063af7d6ca390610ff3903390859060040161227d565b600060405180830381600087803b15801561100d57600080fd5b505af1158015611021573d6000803e3d6000fd5b505050505b821561105157336000908152600660205260408120805485929061104b9084906128a3565b90915550505b61106c33868660405180602001604052806000815250611821565b5050505050565b600081116110935760405162461bcd60e51b8152600401610497906126f7565b600082815260076020526040902060018101546004909101546110b79083906128a3565b11156110d55760405162461bcd60e51b8152600401610497906126cb565b600082815260076020526040812060040180548392906110f69084906128a3565b90915550506000828152600760205260408120600301546111189083906128bb565b60008481526007602052604090206002015490915060ff1615611159578034146111545760405162461bcd60e51b81526004016104979061250f565b61127a565b34156111775760405162461bcd60e51b815260040161049790612546565b6005546040516370a0823160e01b815282916001600160a01b0316906370a08231906111a79033906004016121c6565b60206040518083038186803b1580156111bf57600080fd5b505afa1580156111d3573d6000803e3d6000fd5b505050506040513d601f19601f820116820180604052508101906111f79190612108565b10156112155760405162461bcd60e51b815260040161049790612349565b60055460405163af7d6ca360e01b81526001600160a01b039091169063af7d6ca390611247903390859060040161227d565b600060405180830381600087803b15801561126157600080fd5b505af1158015611275573d6000803e3d6000fd5b505050505b600083815260076020526040902060050154158015906112aa575060008381526007602052604090206005015442105b156112d45733600090815260066020526040812080548492906112ce9084906128a3565b90915550505b6112ef338484604051806020016040528060008152506119a2565b505050565b60009081526007602052604090206003015490565b6001600160a01b03918216600090815260016020908152604080832093909416825291909152205460ff1690565b60009081526007602052604090206002015460ff1690565b61135761162b565b6001600160a01b0316611368610af8565b6001600160a01b03161461138e5760405162461bcd60e51b815260040161049790612696565b600580546001600160a01b0319166001600160a01b0392909216919091179055565b6001600160a01b0384166113d65760405162461bcd60e51b8152600401610497906125b5565b6113de61162b565b6001600160a01b0316856001600160a01b031614806114045750611404856103ea61162b565b6114205760405162461bcd60e51b8152600401610497906124c6565b600061142a61162b565b905061144a81878761143b88611a82565b61144488611a82565b8761162f565b6000848152602081815260408083206001600160a01b038a1684529091529020548381101561148b5760405162461bcd60e51b81526004016104979061264c565b61149584826128da565b6000868152602081815260408083206001600160a01b038c811685529252808320939093558816815290812080548692906114d19084906128a3565b92505081905550856001600160a01b0316876001600160a01b0316836001600160a01b03167fc3d58168c5ae7397731d063d5bbf3d657854427343f4c083240f7aacaa2d0f628888604051611527929190612847565b60405180910390a461153d828888888888611adb565b50505050505050565b61154e61162b565b6001600160a01b031661155f610af8565b6001600160a01b0316146115855760405162461bcd60e51b815260040161049790612696565b6001600160a01b0381166115ab5760405162461bcd60e51b815260040161049790612434565b6003546040516001600160a01b0380841692610100900416907f8be0079c531659141344cd1fd0a4f28419497f9722a3daafe3b4186f6b6457e090600090a3600380546001600160a01b0390921661010002610100600160a81b0319909216919091179055565b6001600160e01b031981166301ffc9a760e01b14919050565b3390565b61080e868686868686611bac565b61164f846001600160a01b0316611bdf565b1561080e5760405163bc197c8160e01b81526001600160a01b0385169063bc197c819061168890899089908890889088906004016121da565b602060405180830381600087803b1580156116a257600080fd5b505af19250505080156116d2575060408051601f3d908101601f191682019092526116cf9181019061205a565b60015b61171b576116de612979565b806116e95750611703565b8060405162461bcd60e51b815260040161049791906122e2565b60405162461bcd60e51b8152600401610497906122f5565b6001600160e01b0319811663bc197c8160e01b1461153d5760405162461bcd60e51b815260040161049790612373565b6117536109f2565b61176f5760405162461bcd60e51b8152600401610497906123bb565b6003805460ff191690557f5db9ee0a495bf2e6ff9c91a7834c1ba4fdd244a5e8aa4e537bd38aeae4b073aa6117a261162b565b6040516117af91906121c6565b60405180910390a1565b6117c16109f2565b156117de5760405162461bcd60e51b81526004016104979061258b565b6003805460ff191660011790557f62e78cea01bee320cd4e420270b5ea74000d11b0c9f74754ebdbfc544b05a2586117a261162b565b5490565b80546001019055565b6001600160a01b0384166118475760405162461bcd60e51b8152600401610497906127fd565b81518351146118685760405162461bcd60e51b8152600401610497906127b5565b600061187261162b565b90506118838160008787878761162f565b60005b845181101561193a578381815181106118af57634e487b7160e01b600052603260045260246000fd5b60200260200101516000808784815181106118da57634e487b7160e01b600052603260045260246000fd5b602002602001015181526020019081526020016000206000886001600160a01b03166001600160a01b03168152602001908152602001600020600082825461192291906128a3565b909155508190506119328161292c565b915050611886565b50846001600160a01b031660006001600160a01b0316826001600160a01b03167f4a39dc06d4c0dbc64b70af90fd698a233a518aa5d07e595d983b8c0526c8f7fb878760405161198b9291906122a9565b60405180910390a461106c8160008787878761163d565b6001600160a01b0384166119c85760405162461bcd60e51b8152600401610497906127fd565b60006119d261162b565b90506119e48160008761143b88611a82565b6000848152602081815260408083206001600160a01b038916845290915281208054859290611a149084906128a3565b92505081905550846001600160a01b031660006001600160a01b0316826001600160a01b03167fc3d58168c5ae7397731d063d5bbf3d657854427343f4c083240f7aacaa2d0f628787604051611a6b929190612847565b60405180910390a461106c81600087878787611adb565b60408051600180825281830190925260609160009190602080830190803683370190505090508281600081518110611aca57634e487b7160e01b600052603260045260246000fd5b602090810291909101015292915050565b611aed846001600160a01b0316611bdf565b1561080e5760405163f23a6e6160e01b81526001600160a01b0385169063f23a6e6190611b269089908990889088908890600401612238565b602060405180830381600087803b158015611b4057600080fd5b505af1925050508015611b70575060408051601f3d908101601f19168201909252611b6d9181019061205a565b60015b611b7c576116de612979565b6001600160e01b0319811663f23a6e6160e01b1461153d5760405162461bcd60e51b815260040161049790612373565b611bba86868686868661080e565b611bc26109f2565b1561080e5760405162461bcd60e51b81526004016104979061247a565b3b151590565b828054611bf1906128f1565b90600052602060002090601f016020900481019282611c135760008555611c59565b82601f10611c2c57805160ff1916838001178555611c59565b82800160010185558215611c59579182015b82811115611c59578251825591602001919060010190611c3e565b50611c65929150611c69565b5090565b5b80821115611c655760008155600101611c6a565b600067ffffffffffffffff831115611c9857611c9861295d565b611cab601f8401601f1916602001612855565b9050828152838383011115611cbf57600080fd5b828260208301376000602084830101529392505050565b80356001600160a01b038116811461050957600080fd5b600082601f830112611cfd578081fd5b81356020611d12611d0d8361287f565b612855565b8281528181019085830183850287018401881015611d2e578586fd5b855b85811015611d4c57813584529284019290840190600101611d30565b5090979650505050505050565b8035801515811461050957600080fd5b600082601f830112611d79578081fd5b611d8883833560208501611c7e565b9392505050565b600060208284031215611da0578081fd5b611d8882611cd6565b60008060408385031215611dbb578081fd5b611dc483611cd6565b9150611dd260208401611cd6565b90509250929050565b600080600080600060a08688031215611df2578081fd5b611dfb86611cd6565b9450611e0960208701611cd6565b9350604086013567ffffffffffffffff80821115611e25578283fd5b611e3189838a01611ced565b94506060880135915080821115611e46578283fd5b611e5289838a01611ced565b93506080880135915080821115611e67578283fd5b50611e7488828901611d69565b9150509295509295909350565b600080600080600060a08688031215611e98578081fd5b611ea186611cd6565b9450611eaf60208701611cd6565b93506040860135925060608601359150608086013567ffffffffffffffff811115611ed8578182fd5b611e7488828901611d69565b60008060408385031215611ef6578182fd5b611eff83611cd6565b9150611dd260208401611d59565b60008060408385031215611f1f578182fd5b611f2883611cd6565b946020939093013593505050565b60008060408385031215611f48578182fd5b823567ffffffffffffffff80821115611f5f578384fd5b818501915085601f830112611f72578384fd5b81356020611f82611d0d8361287f565b82815281810190858301838502870184018b1015611f9e578889fd5b8896505b84871015611fc757611fb381611cd6565b835260019690960195918301918301611fa2565b5096505086013592505080821115611fdd578283fd5b50611fea85828601611ced565b9150509250929050565b60008060408385031215612006578081fd5b823567ffffffffffffffff8082111561201d578283fd5b61202986838701611ced565b93506020850135915080821115611fdd578283fd5b60006020828403121561204f578081fd5b8135611d8881612a1e565b60006020828403121561206b578081fd5b8151611d8881612a1e565b600080600080600060a0868803121561208d578283fd5b853567ffffffffffffffff8111156120a3578384fd5b8601601f810188136120b3578384fd5b6120c288823560208401611c7e565b955050602086013593506120d860408701611d59565b94979396509394606081013594506080013592915050565b600060208284031215612101578081fd5b5035919050565b600060208284031215612119578081fd5b5051919050565b60008060408385031215612132578182fd5b50508035926020909101359150565b6000815180845260208085019450808401835b8381101561217057815187529582019590820190600101612154565b509495945050505050565b60008151808452815b818110156121a057602081850181015186830182015201612184565b818111156121b15782602083870101525b50601f01601f19169290920160200192915050565b6001600160a01b0391909116815260200190565b6001600160a01b0386811682528516602082015260a06040820181905260009061220690830186612141565b82810360608401526122188186612141565b9050828103608084015261222c818561217b565b98975050505050505050565b6001600160a01b03868116825285166020820152604081018490526060810183905260a0608082018190526000906122729083018461217b565b979650505050505050565b6001600160a01b03929092168252602082015260400190565b600060208252611d886020830184612141565b6000604082526122bc6040830185612141565b82810360208401526122ce8185612141565b95945050505050565b901515815260200190565b600060208252611d88602083018461217b565b60208082526034908201527f455243313135353a207472616e7366657220746f206e6f6e20455243313135356040820152732932b1b2b4bb32b91034b6b83632b6b2b73a32b960611b606082015260800190565b60208082526010908201526f4e6f7420656e6f7567682074696c657360801b604082015260600190565b60208082526028908201527f455243313135353a204552433131353552656365697665722072656a656374656040820152676420746f6b656e7360c01b606082015260800190565b60208082526014908201527314185d5cd8589b194e881b9bdd081c185d5cd95960621b604082015260600190565b6020808252602b908201527f455243313135353a2062616c616e636520717565727920666f7220746865207a60408201526a65726f206164647265737360a81b606082015260800190565b60208082526026908201527f4f776e61626c653a206e6577206f776e657220697320746865207a65726f206160408201526564647265737360d01b606082015260800190565b6020808252602c908201527f455243313135355061757361626c653a20746f6b656e207472616e736665722060408201526b1dda1a5b19481c185d5cd95960a21b606082015260800190565b60208082526029908201527f455243313135353a2063616c6c6572206973206e6f74206f776e6572206e6f7260408201526808185c1c1c9bdd995960ba1b606082015260800190565b6020808252601f908201527f45746865722076616c75652073656e74206973206e6f7420636f727265637400604082015260600190565b60208082526025908201527f4574686572206e6f7420616363657074656420666f722074686973206675726e604082015264697475726560d81b606082015260800190565b60208082526010908201526f14185d5cd8589b194e881c185d5cd95960821b604082015260600190565b60208082526025908201527f455243313135353a207472616e7366657220746f20746865207a65726f206164604082015264647265737360d81b606082015260800190565b60208082526032908201527f455243313135353a207472616e736665722063616c6c6572206973206e6f74206040820152711bdddb995c881b9bdc88185c1c1c9bdd995960721b606082015260800190565b6020808252602a908201527f455243313135353a20696e73756666696369656e742062616c616e636520666f60408201526939103a3930b739b332b960b11b606082015260800190565b6020808252818101527f4f776e61626c653a2063616c6c6572206973206e6f7420746865206f776e6572604082015260600190565b60208082526012908201527145786365656473204d41585f535550504c5960701b604082015260600190565b6020808252601290820152710616d6f756e742063616e6e6f7420626520360741b604082015260600190565b60208082526029908201527f455243313135353a2073657474696e6720617070726f76616c20737461747573604082015268103337b91039b2b63360b91b606082015260800190565b60208082526029908201527f455243313135353a206163636f756e747320616e6420696473206c656e677468604082015268040dad2e6dac2e8c6d60bb1b606082015260800190565b60208082526028908201527f455243313135353a2069647320616e6420616d6f756e7473206c656e677468206040820152670dad2e6dac2e8c6d60c31b606082015260800190565b60208082526021908201527f455243313135353a206d696e7420746f20746865207a65726f206164647265736040820152607360f81b606082015260800190565b90815260200190565b918252602082015260400190565b60405181810167ffffffffffffffff811182821017156128775761287761295d565b604052919050565b600067ffffffffffffffff8211156128995761289961295d565b5060209081020190565b600082198211156128b6576128b6612947565b500190565b60008160001904831182151516156128d5576128d5612947565b500290565b6000828210156128ec576128ec612947565b500390565b60028104600182168061290557607f821691505b6020821081141561292657634e487b7160e01b600052602260045260246000fd5b50919050565b600060001982141561294057612940612947565b5060010190565b634e487b7160e01b600052601160045260246000fd5b634e487b7160e01b600052604160045260246000fd5b60e01c90565b600060443d1015612989576109f9565b600481823e6308c379a061299d8251612973565b146129a7576109f9565b6040513d600319016004823e80513d67ffffffffffffffff81602484011181841117156129d757505050506109f9565b828401925082519150808211156129f157505050506109f9565b503d83016020828401011115612a09575050506109f9565b601f01601f1916810160200160405291505090565b6001600160e01b031981168114612a3457600080fd5b5056fea264697066735822122023e256745e5649e48347461a7902f50bbe9d4349a0018ce9dc91eda61b09657864736f6c63430008000033",
  "immutableReferences": {},
  "source": "// SPDX-License-Identifier: BUSL-1.1\r\n\r\npragma solidity ^0.8.0;\r\n\r\nimport \"./ITiles.sol\";\r\nimport \"@openzeppelin/contracts/token/ERC1155/ERC1155.sol\";\r\nimport \"@openzeppelin/contracts/token/ERC1155/extensions/ERC1155Pausable.sol\";\r\nimport \"@openzeppelin/contracts/access/Ownable.sol\";\r\nimport \"@openzeppelin/contracts/utils/Counters.sol\";\r\n\r\ncontract IsotileFurniture is ERC1155, ERC1155Pausable, Ownable {\r\n  using Counters for Counters.Counter;\r\n\r\n  Counters.Counter private _furnitureIds;\r\n  ITiles private tilesInstance;\r\n  \r\n  // Event on create furnitures\r\n  event FurnitureAdded(uint256 indexed id);\r\n  \r\n  // Mapping from address to count of furnitures bought\r\n  mapping (address => uint256) private _furnituresBought;\r\n\r\n  struct Furniture {\r\n    string uri;\r\n    uint256 maxSupply;\r\n    bool isPaidWithEther;\r\n    uint256 price;\r\n    uint256 totalSupply;\r\n    uint256 saveFirstBuyerMaxTimestampAllowed;\r\n  }\r\n\r\n  // Mapping from furniture ID to furnitures\r\n  mapping (uint256 => Furniture) private _furnitures;\r\n  \r\n\r\n  constructor() ERC1155(\"\") {}\r\n\r\n  // Get total furnitures added to isotile contract\r\n  function getTotalFurnitures() public view returns (uint256){\r\n    return _furnitureIds.current();\r\n  }\r\n\r\n  // Get total furnitures added to isotile contract\r\n  function getCountOfFurnituresBought(address account) public view returns (uint256){\r\n    return _furnituresBought[account];\r\n  }\r\n\r\n  // Override get uri for a furniture ID\r\n  function uri(uint256 id) public view override returns (string memory) {\r\n    return _furnitures[id].uri;\r\n  }\r\n\r\n  // Get max supply for a furniture ID\r\n  function getMaxSupply(uint256 id) public view returns (uint256){\r\n    return _furnitures[id].maxSupply;\r\n  }\r\n\r\n  // Get if a furniture is paid on tiles\r\n  function isPaidWithEther(uint256 id) public view returns (bool){\r\n    return _furnitures[id].isPaidWithEther;\r\n  }\r\n\r\n  // Get price in weis of furniture ID\r\n  function getPrice(uint256 id) public view returns (uint256){\r\n    return _furnitures[id].price;\r\n  }\r\n\r\n  // Get count of furnitures minted for a furniture ID\r\n  function getTotalSupply(uint256 id) public view returns (uint256){\r\n    return _furnitures[id].totalSupply;\r\n  }\r\n\r\n  // Mint one furniture\r\n  function mintFurniture(uint256 id, uint256 amount) public payable {\r\n    require(amount > 0, \"amount cannot be 0\");\r\n\r\n    require(_furnitures[id].totalSupply + amount <= _furnitures[id].maxSupply, \"Exceeds MAX_SUPPLY\");\r\n    _furnitures[id].totalSupply += amount;\r\n\r\n    uint256 paymentRequired = _furnitures[id].price * amount;\r\n    if(_furnitures[id].isPaidWithEther){\r\n      require(msg.value == paymentRequired, \"Ether value sent is not correct\");\r\n    }else{\r\n      require(msg.value == 0, \"Ether not accepted for this furniture\");\r\n      require(tilesInstance.balanceOf(msg.sender) >= paymentRequired, \"Not enough tiles\");\r\n\r\n      tilesInstance.spend(msg.sender, paymentRequired);\r\n    }\r\n\r\n    if(_furnitures[id].saveFirstBuyerMaxTimestampAllowed > 0 && block.timestamp < _furnitures[id].saveFirstBuyerMaxTimestampAllowed){\r\n      _furnituresBought[msg.sender] += amount;\r\n    }\r\n\r\n    _mint(msg.sender, id, amount, \"\");\r\n  }\r\n\r\n  // Mint batch furnitures\r\n  function mintBatchFurnitures(uint256[] memory ids, uint256[] memory amounts) public payable {\r\n    require(ids.length == amounts.length, \"ERC1155: ids and amounts length mismatch\");\r\n\r\n    uint256 totalAmounts = 0;\r\n    uint256 paymentRequiredOnEther = 0;\r\n    uint256 paymentRequiredOnTiles = 0;\r\n\r\n    for (uint i = 0; i < ids.length; i++) {\r\n      uint256 id = ids[i];\r\n      uint256 amount = amounts[i];\r\n\r\n      require(amount > 0, \"amount cannot be 0\");\r\n\r\n      if(_furnitures[id].saveFirstBuyerMaxTimestampAllowed > 0 && block.timestamp < _furnitures[id].saveFirstBuyerMaxTimestampAllowed){\r\n        totalAmounts += amount;\r\n      }\r\n\r\n      require(_furnitures[id].totalSupply + amount <= _furnitures[id].maxSupply, \"Exceeds MAX_SUPPLY\");\r\n      _furnitures[id].totalSupply += amount;\r\n\r\n      if(_furnitures[id].isPaidWithEther){\r\n        paymentRequiredOnEther += _furnitures[id].price * amount;\r\n      }else{\r\n        paymentRequiredOnTiles += _furnitures[id].price * amount;\r\n      }\r\n    }\r\n\r\n    require(msg.value == paymentRequiredOnEther, \"Ether value sent is not correct\");\r\n\r\n    if(paymentRequiredOnTiles > 0){\r\n      require(tilesInstance.balanceOf(msg.sender) >= paymentRequiredOnTiles, \"Not enough tiles\");\r\n\r\n      tilesInstance.spend(msg.sender, paymentRequiredOnTiles);\r\n    }\r\n\r\n    if(totalAmounts > 0){\r\n      _furnituresBought[msg.sender] += totalAmounts;\r\n    }\r\n\r\n    _mintBatch(msg.sender, ids, amounts, \"\");\r\n  }\r\n  \r\n  function _beforeTokenTransfer(address operator, address from, address to, uint256[] memory ids, uint256[] memory amounts, bytes memory data) internal virtual override(ERC1155, ERC1155Pausable) {\r\n    super._beforeTokenTransfer(operator, from, to, ids, amounts, data);\r\n  }\r\n\r\n  // Create a furniture\r\n  function addFurniture(string memory _furnitureUri, uint256 _maxSupply, bool _isPaidWithEther, uint256 _price, uint256 _saveFirstBuyerMaxTimestampAllowed) onlyOwner public {\r\n    uint256 newFurnitureId = _furnitureIds.current();\r\n\r\n    _furnitures[newFurnitureId] = Furniture({\r\n      uri: _furnitureUri,\r\n      maxSupply: _maxSupply,\r\n      isPaidWithEther: _isPaidWithEther,\r\n      price: _price,\r\n      totalSupply: 0,\r\n      saveFirstBuyerMaxTimestampAllowed: _saveFirstBuyerMaxTimestampAllowed\r\n    });\r\n    \r\n    emit FurnitureAdded(newFurnitureId);\r\n\r\n    _furnitureIds.increment();\r\n  }\r\n\r\n  function setTilesInstance(address tilesAddress) onlyOwner public {\r\n    tilesInstance = ITiles(tilesAddress);\r\n  }\r\n  \r\n  function pause() onlyOwner public {\r\n      _pause();\r\n  }\r\n  \r\n  function unpause() onlyOwner public {\r\n      _unpause();\r\n  }\r\n\r\n  function withdraw() onlyOwner public {\r\n    uint balance = address(this).balance;\r\n    payable(msg.sender).transfer(balance);\r\n  }\r\n\r\n}",
  "sourcePath": "E:/otros/isotile/isotile-contracts/contracts/IsotileFurniture.sol",
  "compiler": {
    "name": "solc",
    "version": "0.8.0+commit.c7dfd78e.Emscripten.clang"
  },
  "schemaVersion": "3.3.4",
  "updatedAt": "2021-04-21T22:07:21.427Z",
  "devdoc": {
    "kind": "dev",
    "methods": {
      "balanceOf(address,uint256)": {
        "details": "See {IERC1155-balanceOf}. Requirements: - `account` cannot be the zero address."
      },
      "balanceOfBatch(address[],uint256[])": {
        "details": "See {IERC1155-balanceOfBatch}. Requirements: - `accounts` and `ids` must have the same length."
      },
      "isApprovedForAll(address,address)": {
        "details": "See {IERC1155-isApprovedForAll}."
      },
      "owner()": {
        "details": "Returns the address of the current owner."
      },
      "paused()": {
        "details": "Returns true if the contract is paused, and false otherwise."
      },
      "renounceOwnership()": {
        "details": "Leaves the contract without owner. It will not be possible to call `onlyOwner` functions anymore. Can only be called by the current owner. NOTE: Renouncing ownership will leave the contract without an owner, thereby removing any functionality that is only available to the owner."
      },
      "safeBatchTransferFrom(address,address,uint256[],uint256[],bytes)": {
        "details": "See {IERC1155-safeBatchTransferFrom}."
      },
      "safeTransferFrom(address,address,uint256,uint256,bytes)": {
        "details": "See {IERC1155-safeTransferFrom}."
      },
      "setApprovalForAll(address,bool)": {
        "details": "See {IERC1155-setApprovalForAll}."
      },
      "supportsInterface(bytes4)": {
        "details": "See {IERC165-supportsInterface}."
      },
      "transferOwnership(address)": {
        "details": "Transfers ownership of the contract to a new account (`newOwner`). Can only be called by the current owner."
      }
    },
    "version": 1
  },
  "userdoc": {
    "kind": "user",
    "methods": {},
    "version": 1
  }
}