{
  "contractName": "IsotileFurnitureV0",
  "abi": [
    {
      "inputs": [],
      "stateMutability": "nonpayable",
      "type": "constructor"
    },
    {
      "anonymous": false,
      "inputs": [
        {
          "indexed": true,
          "internalType": "address",
          "name": "account",
          "type": "address"
        },
        {
          "indexed": true,
          "internalType": "address",
          "name": "operator",
          "type": "address"
        },
        {
          "indexed": false,
          "internalType": "bool",
          "name": "approved",
          "type": "bool"
        }
      ],
      "name": "ApprovalForAll",
      "type": "event"
    },
    {
      "anonymous": false,
      "inputs": [
        {
          "indexed": true,
          "internalType": "address",
          "name": "previousOwner",
          "type": "address"
        },
        {
          "indexed": true,
          "internalType": "address",
          "name": "newOwner",
          "type": "address"
        }
      ],
      "name": "OwnershipTransferred",
      "type": "event"
    },
    {
      "anonymous": false,
      "inputs": [
        {
          "indexed": true,
          "internalType": "address",
          "name": "operator",
          "type": "address"
        },
        {
          "indexed": true,
          "internalType": "address",
          "name": "from",
          "type": "address"
        },
        {
          "indexed": true,
          "internalType": "address",
          "name": "to",
          "type": "address"
        },
        {
          "indexed": false,
          "internalType": "uint256[]",
          "name": "ids",
          "type": "uint256[]"
        },
        {
          "indexed": false,
          "internalType": "uint256[]",
          "name": "values",
          "type": "uint256[]"
        }
      ],
      "name": "TransferBatch",
      "type": "event"
    },
    {
      "anonymous": false,
      "inputs": [
        {
          "indexed": true,
          "internalType": "address",
          "name": "operator",
          "type": "address"
        },
        {
          "indexed": true,
          "internalType": "address",
          "name": "from",
          "type": "address"
        },
        {
          "indexed": true,
          "internalType": "address",
          "name": "to",
          "type": "address"
        },
        {
          "indexed": false,
          "internalType": "uint256",
          "name": "id",
          "type": "uint256"
        },
        {
          "indexed": false,
          "internalType": "uint256",
          "name": "value",
          "type": "uint256"
        }
      ],
      "name": "TransferSingle",
      "type": "event"
    },
    {
      "anonymous": false,
      "inputs": [
        {
          "indexed": false,
          "internalType": "string",
          "name": "value",
          "type": "string"
        },
        {
          "indexed": true,
          "internalType": "uint256",
          "name": "id",
          "type": "uint256"
        }
      ],
      "name": "URI",
      "type": "event"
    },
    {
      "inputs": [
        {
          "internalType": "address",
          "name": "account",
          "type": "address"
        },
        {
          "internalType": "uint256",
          "name": "id",
          "type": "uint256"
        }
      ],
      "name": "balanceOf",
      "outputs": [
        {
          "internalType": "uint256",
          "name": "",
          "type": "uint256"
        }
      ],
      "stateMutability": "view",
      "type": "function",
      "constant": true
    },
    {
      "inputs": [
        {
          "internalType": "address[]",
          "name": "accounts",
          "type": "address[]"
        },
        {
          "internalType": "uint256[]",
          "name": "ids",
          "type": "uint256[]"
        }
      ],
      "name": "balanceOfBatch",
      "outputs": [
        {
          "internalType": "uint256[]",
          "name": "",
          "type": "uint256[]"
        }
      ],
      "stateMutability": "view",
      "type": "function",
      "constant": true
    },
    {
      "inputs": [
        {
          "internalType": "address",
          "name": "account",
          "type": "address"
        },
        {
          "internalType": "address",
          "name": "operator",
          "type": "address"
        }
      ],
      "name": "isApprovedForAll",
      "outputs": [
        {
          "internalType": "bool",
          "name": "",
          "type": "bool"
        }
      ],
      "stateMutability": "view",
      "type": "function",
      "constant": true
    },
    {
      "inputs": [],
      "name": "owner",
      "outputs": [
        {
          "internalType": "address",
          "name": "",
          "type": "address"
        }
      ],
      "stateMutability": "view",
      "type": "function",
      "constant": true
    },
    {
      "inputs": [],
      "name": "renounceOwnership",
      "outputs": [],
      "stateMutability": "nonpayable",
      "type": "function"
    },
    {
      "inputs": [
        {
          "internalType": "address",
          "name": "from",
          "type": "address"
        },
        {
          "internalType": "address",
          "name": "to",
          "type": "address"
        },
        {
          "internalType": "uint256[]",
          "name": "ids",
          "type": "uint256[]"
        },
        {
          "internalType": "uint256[]",
          "name": "amounts",
          "type": "uint256[]"
        },
        {
          "internalType": "bytes",
          "name": "data",
          "type": "bytes"
        }
      ],
      "name": "safeBatchTransferFrom",
      "outputs": [],
      "stateMutability": "nonpayable",
      "type": "function"
    },
    {
      "inputs": [
        {
          "internalType": "address",
          "name": "from",
          "type": "address"
        },
        {
          "internalType": "address",
          "name": "to",
          "type": "address"
        },
        {
          "internalType": "uint256",
          "name": "id",
          "type": "uint256"
        },
        {
          "internalType": "uint256",
          "name": "amount",
          "type": "uint256"
        },
        {
          "internalType": "bytes",
          "name": "data",
          "type": "bytes"
        }
      ],
      "name": "safeTransferFrom",
      "outputs": [],
      "stateMutability": "nonpayable",
      "type": "function"
    },
    {
      "inputs": [
        {
          "internalType": "address",
          "name": "operator",
          "type": "address"
        },
        {
          "internalType": "bool",
          "name": "approved",
          "type": "bool"
        }
      ],
      "name": "setApprovalForAll",
      "outputs": [],
      "stateMutability": "nonpayable",
      "type": "function"
    },
    {
      "inputs": [
        {
          "internalType": "bytes4",
          "name": "interfaceId",
          "type": "bytes4"
        }
      ],
      "name": "supportsInterface",
      "outputs": [
        {
          "internalType": "bool",
          "name": "",
          "type": "bool"
        }
      ],
      "stateMutability": "view",
      "type": "function",
      "constant": true
    },
    {
      "inputs": [
        {
          "internalType": "address",
          "name": "newOwner",
          "type": "address"
        }
      ],
      "name": "transferOwnership",
      "outputs": [],
      "stateMutability": "nonpayable",
      "type": "function"
    },
    {
      "inputs": [],
      "name": "getTotalFurnitures",
      "outputs": [
        {
          "internalType": "uint256",
          "name": "",
          "type": "uint256"
        }
      ],
      "stateMutability": "view",
      "type": "function",
      "constant": true
    },
    {
      "inputs": [
        {
          "internalType": "string",
          "name": "_globalUri",
          "type": "string"
        },
        {
          "internalType": "uint256",
          "name": "_maxSupply",
          "type": "uint256"
        },
        {
          "internalType": "uint256",
          "name": "_weisPrice",
          "type": "uint256"
        }
      ],
      "name": "addFurniture",
      "outputs": [],
      "stateMutability": "nonpayable",
      "type": "function"
    },
    {
      "inputs": [
        {
          "internalType": "uint256",
          "name": "id",
          "type": "uint256"
        }
      ],
      "name": "uri",
      "outputs": [
        {
          "internalType": "string",
          "name": "",
          "type": "string"
        }
      ],
      "stateMutability": "view",
      "type": "function",
      "constant": true
    },
    {
      "inputs": [
        {
          "internalType": "uint256",
          "name": "id",
          "type": "uint256"
        }
      ],
      "name": "getMaxSupply",
      "outputs": [
        {
          "internalType": "uint256",
          "name": "",
          "type": "uint256"
        }
      ],
      "stateMutability": "view",
      "type": "function",
      "constant": true
    },
    {
      "inputs": [
        {
          "internalType": "uint256",
          "name": "id",
          "type": "uint256"
        }
      ],
      "name": "getTotalSupply",
      "outputs": [
        {
          "internalType": "uint256",
          "name": "",
          "type": "uint256"
        }
      ],
      "stateMutability": "view",
      "type": "function",
      "constant": true
    },
    {
      "inputs": [
        {
          "internalType": "uint256",
          "name": "id",
          "type": "uint256"
        }
      ],
      "name": "getWeisPrice",
      "outputs": [
        {
          "internalType": "uint256",
          "name": "",
          "type": "uint256"
        }
      ],
      "stateMutability": "view",
      "type": "function",
      "constant": true
    },
    {
      "inputs": [
        {
          "internalType": "uint256",
          "name": "id",
          "type": "uint256"
        },
        {
          "internalType": "uint256",
          "name": "amount",
          "type": "uint256"
        }
      ],
      "name": "mintFurniture",
      "outputs": [],
      "stateMutability": "payable",
      "type": "function",
      "payable": true
    },
    {
      "inputs": [
        {
          "internalType": "uint256[]",
          "name": "ids",
          "type": "uint256[]"
        },
        {
          "internalType": "uint256[]",
          "name": "amounts",
          "type": "uint256[]"
        }
      ],
      "name": "mintBatchFurnitures",
      "outputs": [],
      "stateMutability": "payable",
      "type": "function",
      "payable": true
    },
    {
      "inputs": [],
      "name": "withdraw",
      "outputs": [],
      "stateMutability": "nonpayable",
      "type": "function"
    }
  ],
  "bytecode": "0x60806040523480156200001157600080fd5b506040518060400160405280600b81526020017f69736f74696c652e636f6d00000000000000000000000000000000000000000081525062000059816200011160201b60201c565b5060006200006c6200012d60201b60201c565b905080600360006101000a81548173ffffffffffffffffffffffffffffffffffffffff021916908373ffffffffffffffffffffffffffffffffffffffff1602179055508073ffffffffffffffffffffffffffffffffffffffff16600073ffffffffffffffffffffffffffffffffffffffff167f8be0079c531659141344cd1fd0a4f28419497f9722a3daafe3b4186f6b6457e060405160405180910390a3506200024a565b80600290805190602001906200012992919062000135565b5050565b600033905090565b8280546200014390620001e5565b90600052602060002090601f016020900481019282620001675760008555620001b3565b82601f106200018257805160ff1916838001178555620001b3565b82800160010185558215620001b3579182015b82811115620001b257825182559160200191906001019062000195565b5b509050620001c29190620001c6565b5090565b5b80821115620001e1576000816000905550600101620001c7565b5090565b60006002820490506001821680620001fe57607f821691505b602082108114156200021557620002146200021b565b5b50919050565b7f4e487b7100000000000000000000000000000000000000000000000000000000600052602260045260246000fd5b613c21806200025a6000396000f3fe6080604052600436106101135760003560e01c806387e5c7e9116100a0578063b9f7f00211610064578063b9f7f002146103a1578063e985e9c5146103bd578063ee151aaf146103fa578063f242432a14610437578063f2fde38b1461046057610113565b806387e5c7e9146102c95780638da5cb5b146102f457806392ab723e1461031f578063a22cb4651461035c578063a903f6c31461038557610113565b80632eb2c2d6116100e75780632eb2c2d6146101f85780633ccfd60b146102215780634e1273f4146102385780635e495d7414610275578063715018a6146102b257610113565b8062fdd58e1461011857806301ffc9a7146101555780630e89341c14610192578063232b8592146101cf575b600080fd5b34801561012457600080fd5b5061013f600480360381019061013a9190612901565b610489565b60405161014c91906131fa565b60405180910390f35b34801561016157600080fd5b5061017c60048036038101906101779190612a15565b610552565b6040516101899190612fbd565b60405180910390f35b34801561019e57600080fd5b506101b960048036038101906101b49190612ace565b610634565b6040516101c69190612fd8565b60405180910390f35b3480156101db57600080fd5b506101f660048036038101906101f19190612a67565b6106dc565b005b34801561020457600080fd5b5061021f600480360381019061021a9190612777565b6107d7565b005b34801561022d57600080fd5b50610236610bcd565b005b34801561024457600080fd5b5061025f600480360381019061025a919061293d565b610c98565b60405161026c9190612f64565b60405180910390f35b34801561028157600080fd5b5061029c60048036038101906102979190612ace565b610e49565b6040516102a991906131fa565b60405180910390f35b3480156102be57600080fd5b506102c7610e69565b005b3480156102d557600080fd5b506102de610fa6565b6040516102eb91906131fa565b60405180910390f35b34801561030057600080fd5b50610309610fb7565b6040516103169190612e87565b60405180910390f35b34801561032b57600080fd5b5061034660048036038101906103419190612ace565b610fe1565b60405161035391906131fa565b60405180910390f35b34801561036857600080fd5b50610383600480360381019061037e91906128c5565b611001565b005b61039f600480360381019061039a91906129a9565b611182565b005b6103bb60048036038101906103b69190612af7565b6113ed565b005b3480156103c957600080fd5b506103e460048036038101906103df919061273b565b61154d565b6040516103f19190612fbd565b60405180910390f35b34801561040657600080fd5b50610421600480360381019061041c9190612ace565b6115e1565b60405161042e91906131fa565b60405180910390f35b34801561044357600080fd5b5061045e60048036038101906104599190612836565b611601565b005b34801561046c57600080fd5b5061048760048036038101906104829190612712565b611919565b005b60008073ffffffffffffffffffffffffffffffffffffffff168373ffffffffffffffffffffffffffffffffffffffff1614156104fa576040517f08c379a00000000000000000000000000000000000000000000000000000000081526004016104f19061303a565b60405180910390fd5b60008083815260200190815260200160002060008473ffffffffffffffffffffffffffffffffffffffff1673ffffffffffffffffffffffffffffffffffffffff16815260200190815260200160002054905092915050565b60007fd9b67a26000000000000000000000000000000000000000000000000000000007bffffffffffffffffffffffffffffffffffffffffffffffffffffffff1916827bffffffffffffffffffffffffffffffffffffffffffffffffffffffff1916148061061d57507f0e89341c000000000000000000000000000000000000000000000000000000007bffffffffffffffffffffffffffffffffffffffffffffffffffffffff1916827bffffffffffffffffffffffffffffffffffffffffffffffffffffffff1916145b8061062d575061062c82611ac5565b5b9050919050565b606060056000838152602001908152602001600020600001805461065790613528565b80601f016020809104026020016040519081016040528092919081815260200182805461068390613528565b80156106d05780601f106106a5576101008083540402835291602001916106d0565b820191906000526020600020905b8154815290600101906020018083116106b357829003601f168201915b50505050509050919050565b6106e4611b2f565b73ffffffffffffffffffffffffffffffffffffffff16610702610fb7565b73ffffffffffffffffffffffffffffffffffffffff1614610758576040517f08c379a000000000000000000000000000000000000000000000000000000000815260040161074f9061311a565b60405180910390fd5b60006107646004611b37565b90508360056000838152602001908152602001600020600001908051906020019061079092919061240a565b508260056000838152602001908152602001600020600101819055508160056000838152602001908152602001600020600201819055506107d16004611b45565b50505050565b815183511461081b576040517f08c379a0000000000000000000000000000000000000000000000000000000008152600401610812906131ba565b60405180910390fd5b600073ffffffffffffffffffffffffffffffffffffffff168473ffffffffffffffffffffffffffffffffffffffff16141561088b576040517f08c379a0000000000000000000000000000000000000000000000000000000008152600401610882906130ba565b60405180910390fd5b610893611b2f565b73ffffffffffffffffffffffffffffffffffffffff168573ffffffffffffffffffffffffffffffffffffffff1614806108d957506108d8856108d3611b2f565b61154d565b5b610918576040517f08c379a000000000000000000000000000000000000000000000000000000000815260040161090f906130da565b60405180910390fd5b6000610922611b2f565b9050610932818787878787611b5b565b60005b8451811015610b38576000858281518110610979577f4e487b7100000000000000000000000000000000000000000000000000000000600052603260045260246000fd5b6020026020010151905060008583815181106109be577f4e487b7100000000000000000000000000000000000000000000000000000000600052603260045260246000fd5b60200260200101519050600080600084815260200190815260200160002060008b73ffffffffffffffffffffffffffffffffffffffff1673ffffffffffffffffffffffffffffffffffffffff16815260200190815260200160002054905081811015610a5f576040517f08c379a0000000000000000000000000000000000000000000000000000000008152600401610a56906130fa565b60405180910390fd5b8181610a6b919061343e565b60008085815260200190815260200160002060008c73ffffffffffffffffffffffffffffffffffffffff1673ffffffffffffffffffffffffffffffffffffffff168152602001908152602001600020819055508160008085815260200190815260200160002060008b73ffffffffffffffffffffffffffffffffffffffff1673ffffffffffffffffffffffffffffffffffffffff1681526020019081526020016000206000828254610b1d919061338e565b9250508190555050505080610b319061358b565b9050610935565b508473ffffffffffffffffffffffffffffffffffffffff168673ffffffffffffffffffffffffffffffffffffffff168273ffffffffffffffffffffffffffffffffffffffff167f4a39dc06d4c0dbc64b70af90fd698a233a518aa5d07e595d983b8c0526c8f7fb8787604051610baf929190612f86565b60405180910390a4610bc5818787878787611b63565b505050505050565b610bd5611b2f565b73ffffffffffffffffffffffffffffffffffffffff16610bf3610fb7565b73ffffffffffffffffffffffffffffffffffffffff1614610c49576040517f08c379a0000000000000000000000000000000000000000000000000000000008152600401610c409061311a565b60405180910390fd5b60004790503373ffffffffffffffffffffffffffffffffffffffff166108fc829081150290604051600060405180830381858888f19350505050158015610c94573d6000803e3d6000fd5b5050565b60608151835114610cde576040517f08c379a0000000000000000000000000000000000000000000000000000000008152600401610cd59061319a565b60405180910390fd5b6000835167ffffffffffffffff811115610d21577f4e487b7100000000000000000000000000000000000000000000000000000000600052604160045260246000fd5b604051908082528060200260200182016040528015610d4f5781602001602082028036833780820191505090505b50905060005b8451811015610e3e57610de8858281518110610d9a577f4e487b7100000000000000000000000000000000000000000000000000000000600052603260045260246000fd5b6020026020010151858381518110610ddb577f4e487b7100000000000000000000000000000000000000000000000000000000600052603260045260246000fd5b6020026020010151610489565b828281518110610e21577f4e487b7100000000000000000000000000000000000000000000000000000000600052603260045260246000fd5b60200260200101818152505080610e379061358b565b9050610d55565b508091505092915050565b600060056000838152602001908152602001600020600101549050919050565b610e71611b2f565b73ffffffffffffffffffffffffffffffffffffffff16610e8f610fb7565b73ffffffffffffffffffffffffffffffffffffffff1614610ee5576040517f08c379a0000000000000000000000000000000000000000000000000000000008152600401610edc9061311a565b60405180910390fd5b600073ffffffffffffffffffffffffffffffffffffffff16600360009054906101000a900473ffffffffffffffffffffffffffffffffffffffff1673ffffffffffffffffffffffffffffffffffffffff167f8be0079c531659141344cd1fd0a4f28419497f9722a3daafe3b4186f6b6457e060405160405180910390a36000600360006101000a81548173ffffffffffffffffffffffffffffffffffffffff021916908373ffffffffffffffffffffffffffffffffffffffff160217905550565b6000610fb26004611b37565b905090565b6000600360009054906101000a900473ffffffffffffffffffffffffffffffffffffffff16905090565b600060056000838152602001908152602001600020600301549050919050565b8173ffffffffffffffffffffffffffffffffffffffff16611020611b2f565b73ffffffffffffffffffffffffffffffffffffffff161415611077576040517f08c379a000000000000000000000000000000000000000000000000000000000815260040161106e9061317a565b60405180910390fd5b8060016000611084611b2f565b73ffffffffffffffffffffffffffffffffffffffff1673ffffffffffffffffffffffffffffffffffffffff16815260200190815260200160002060008473ffffffffffffffffffffffffffffffffffffffff1673ffffffffffffffffffffffffffffffffffffffff16815260200190815260200160002060006101000a81548160ff0219169083151502179055508173ffffffffffffffffffffffffffffffffffffffff16611131611b2f565b73ffffffffffffffffffffffffffffffffffffffff167f17307eab39ab6107e8899845ad3d59bd9653f200f220920489ca2b5937696c31836040516111769190612fbd565b60405180910390a35050565b80518251146111c6576040517f08c379a00000000000000000000000000000000000000000000000000000000081526004016111bd906131ba565b60405180910390fd5b6000805b835181101561138a57600084828151811061120e577f4e487b7100000000000000000000000000000000000000000000000000000000600052603260045260246000fd5b602002602001015190506000848381518110611253577f4e487b7100000000000000000000000000000000000000000000000000000000600052603260045260246000fd5b60200260200101519050600081116112a0576040517f08c379a00000000000000000000000000000000000000000000000000000000081526004016112979061315a565b60405180910390fd5b806005600084815260200190815260200160002060030160008282546112c6919061338e565b925050819055506005600083815260200190815260200160002060010154816005600085815260200190815260200160002060030154611306919061338e565b10611346576040517f08c379a000000000000000000000000000000000000000000000000000000000815260040161133d9061313a565b60405180910390fd5b80600560008481526020019081526020016000206002015461136891906133e4565b84611373919061338e565b9350505080806113829061358b565b9150506111ca565b503481146113cd576040517f08c379a00000000000000000000000000000000000000000000000000000000081526004016113c49061309a565b60405180910390fd5b6113e833848460405180602001604052806000815250611d4a565b505050565b60008111611430576040517f08c379a00000000000000000000000000000000000000000000000000000000081526004016114279061315a565b60405180910390fd5b3481600560008581526020019081526020016000206002015461145391906133e4565b14611493576040517f08c379a000000000000000000000000000000000000000000000000000000000815260040161148a9061309a565b60405180910390fd5b806005600084815260200190815260200160002060030160008282546114b9919061338e565b92505081905550600560008381526020019081526020016000206001015460056000848152602001908152602001600020600301541061152e576040517f08c379a00000000000000000000000000000000000000000000000000000000081526004016115259061313a565b60405180910390fd5b61154933838360405180602001604052806000815250611fb4565b5050565b6000600160008473ffffffffffffffffffffffffffffffffffffffff1673ffffffffffffffffffffffffffffffffffffffff16815260200190815260200160002060008373ffffffffffffffffffffffffffffffffffffffff1673ffffffffffffffffffffffffffffffffffffffff16815260200190815260200160002060009054906101000a900460ff16905092915050565b600060056000838152602001908152602001600020600201549050919050565b600073ffffffffffffffffffffffffffffffffffffffff168473ffffffffffffffffffffffffffffffffffffffff161415611671576040517f08c379a0000000000000000000000000000000000000000000000000000000008152600401611668906130ba565b60405180910390fd5b611679611b2f565b73ffffffffffffffffffffffffffffffffffffffff168573ffffffffffffffffffffffffffffffffffffffff1614806116bf57506116be856116b9611b2f565b61154d565b5b6116fe576040517f08c379a00000000000000000000000000000000000000000000000000000000081526004016116f59061307a565b60405180910390fd5b6000611708611b2f565b90506117288187876117198861214a565b6117228861214a565b87611b5b565b600080600086815260200190815260200160002060008873ffffffffffffffffffffffffffffffffffffffff1673ffffffffffffffffffffffffffffffffffffffff168152602001908152602001600020549050838110156117bf576040517f08c379a00000000000000000000000000000000000000000000000000000000081526004016117b6906130fa565b60405180910390fd5b83816117cb919061343e565b60008087815260200190815260200160002060008973ffffffffffffffffffffffffffffffffffffffff1673ffffffffffffffffffffffffffffffffffffffff168152602001908152602001600020819055508360008087815260200190815260200160002060008873ffffffffffffffffffffffffffffffffffffffff1673ffffffffffffffffffffffffffffffffffffffff168152602001908152602001600020600082825461187d919061338e565b925050819055508573ffffffffffffffffffffffffffffffffffffffff168773ffffffffffffffffffffffffffffffffffffffff168373ffffffffffffffffffffffffffffffffffffffff167fc3d58168c5ae7397731d063d5bbf3d657854427343f4c083240f7aacaa2d0f6288886040516118fa929190613215565b60405180910390a4611910828888888888612210565b50505050505050565b611921611b2f565b73ffffffffffffffffffffffffffffffffffffffff1661193f610fb7565b73ffffffffffffffffffffffffffffffffffffffff1614611995576040517f08c379a000000000000000000000000000000000000000000000000000000000815260040161198c9061311a565b60405180910390fd5b600073ffffffffffffffffffffffffffffffffffffffff168173ffffffffffffffffffffffffffffffffffffffff161415611a05576040517f08c379a00000000000000000000000000000000000000000000000000000000081526004016119fc9061305a565b60405180910390fd5b8073ffffffffffffffffffffffffffffffffffffffff16600360009054906101000a900473ffffffffffffffffffffffffffffffffffffffff1673ffffffffffffffffffffffffffffffffffffffff167f8be0079c531659141344cd1fd0a4f28419497f9722a3daafe3b4186f6b6457e060405160405180910390a380600360006101000a81548173ffffffffffffffffffffffffffffffffffffffff021916908373ffffffffffffffffffffffffffffffffffffffff16021790555050565b60007f01ffc9a7000000000000000000000000000000000000000000000000000000007bffffffffffffffffffffffffffffffffffffffffffffffffffffffff1916827bffffffffffffffffffffffffffffffffffffffffffffffffffffffff1916149050919050565b600033905090565b600081600001549050919050565b6001816000016000828254019250508190555050565b505050505050565b611b828473ffffffffffffffffffffffffffffffffffffffff166123f7565b15611d42578373ffffffffffffffffffffffffffffffffffffffff1663bc197c8187878686866040518663ffffffff1660e01b8152600401611bc8959493929190612ea2565b602060405180830381600087803b158015611be257600080fd5b505af1925050508015611c1357506040513d601f19601f82011682018060405250810190611c109190612a3e565b60015b611cb957611c1f613661565b806308c379a01415611c7c5750611c34613af9565b80611c3f5750611c7e565b806040517f08c379a0000000000000000000000000000000000000000000000000000000008152600401611c739190612fd8565b60405180910390fd5b505b6040517f08c379a0000000000000000000000000000000000000000000000000000000008152600401611cb090612ffa565b60405180910390fd5b63bc197c8160e01b7bffffffffffffffffffffffffffffffffffffffffffffffffffffffff1916817bffffffffffffffffffffffffffffffffffffffffffffffffffffffff191614611d40576040517f08c379a0000000000000000000000000000000000000000000000000000000008152600401611d379061301a565b60405180910390fd5b505b505050505050565b600073ffffffffffffffffffffffffffffffffffffffff168473ffffffffffffffffffffffffffffffffffffffff161415611dba576040517f08c379a0000000000000000000000000000000000000000000000000000000008152600401611db1906131da565b60405180910390fd5b8151835114611dfe576040517f08c379a0000000000000000000000000000000000000000000000000000000008152600401611df5906131ba565b60405180910390fd5b6000611e08611b2f565b9050611e1981600087878787611b5b565b60005b8451811015611f1e57838181518110611e5e577f4e487b7100000000000000000000000000000000000000000000000000000000600052603260045260246000fd5b6020026020010151600080878481518110611ea2577f4e487b7100000000000000000000000000000000000000000000000000000000600052603260045260246000fd5b6020026020010151815260200190815260200160002060008873ffffffffffffffffffffffffffffffffffffffff1673ffffffffffffffffffffffffffffffffffffffff1681526020019081526020016000206000828254611f04919061338e565b925050819055508080611f169061358b565b915050611e1c565b508473ffffffffffffffffffffffffffffffffffffffff16600073ffffffffffffffffffffffffffffffffffffffff168273ffffffffffffffffffffffffffffffffffffffff167f4a39dc06d4c0dbc64b70af90fd698a233a518aa5d07e595d983b8c0526c8f7fb8787604051611f96929190612f86565b60405180910390a4611fad81600087878787611b63565b5050505050565b600073ffffffffffffffffffffffffffffffffffffffff168473ffffffffffffffffffffffffffffffffffffffff161415612024576040517f08c379a000000000000000000000000000000000000000000000000000000000815260040161201b906131da565b60405180910390fd5b600061202e611b2f565b905061204f816000876120408861214a565b6120498861214a565b87611b5b565b8260008086815260200190815260200160002060008773ffffffffffffffffffffffffffffffffffffffff1673ffffffffffffffffffffffffffffffffffffffff16815260200190815260200160002060008282546120ae919061338e565b925050819055508473ffffffffffffffffffffffffffffffffffffffff16600073ffffffffffffffffffffffffffffffffffffffff168273ffffffffffffffffffffffffffffffffffffffff167fc3d58168c5ae7397731d063d5bbf3d657854427343f4c083240f7aacaa2d0f62878760405161212c929190613215565b60405180910390a461214381600087878787612210565b5050505050565b60606000600167ffffffffffffffff81111561218f577f4e487b7100000000000000000000000000000000000000000000000000000000600052604160045260246000fd5b6040519080825280602002602001820160405280156121bd5781602001602082028036833780820191505090505b50905082816000815181106121fb577f4e487b7100000000000000000000000000000000000000000000000000000000600052603260045260246000fd5b60200260200101818152505080915050919050565b61222f8473ffffffffffffffffffffffffffffffffffffffff166123f7565b156123ef578373ffffffffffffffffffffffffffffffffffffffff1663f23a6e6187878686866040518663ffffffff1660e01b8152600401612275959493929190612f0a565b602060405180830381600087803b15801561228f57600080fd5b505af19250505080156122c057506040513d601f19601f820116820180604052508101906122bd9190612a3e565b60015b612366576122cc613661565b806308c379a0141561232957506122e1613af9565b806122ec575061232b565b806040517f08c379a00000000000000000000000000000000000000000000000000000000081526004016123209190612fd8565b60405180910390fd5b505b6040517f08c379a000000000000000000000000000000000000000000000000000000000815260040161235d90612ffa565b60405180910390fd5b63f23a6e6160e01b7bffffffffffffffffffffffffffffffffffffffffffffffffffffffff1916817bffffffffffffffffffffffffffffffffffffffffffffffffffffffff1916146123ed576040517f08c379a00000000000000000000000000000000000000000000000000000000081526004016123e49061301a565b60405180910390fd5b505b505050505050565b600080823b905060008111915050919050565b82805461241690613528565b90600052602060002090601f016020900481019282612438576000855561247f565b82601f1061245157805160ff191683800117855561247f565b8280016001018555821561247f579182015b8281111561247e578251825591602001919060010190612463565b5b50905061248c9190612490565b5090565b5b808211156124a9576000816000905550600101612491565b5090565b60006124c06124bb84613263565b61323e565b905080838252602082019050828560208602820111156124df57600080fd5b60005b8581101561250f57816124f58882612601565b8452602084019350602083019250506001810190506124e2565b5050509392505050565b600061252c6125278461328f565b61323e565b9050808382526020820190508285602086028201111561254b57600080fd5b60005b8581101561257b578161256188826126fd565b84526020840193506020830192505060018101905061254e565b5050509392505050565b6000612598612593846132bb565b61323e565b9050828152602081018484840111156125b057600080fd5b6125bb8482856134e6565b509392505050565b60006125d66125d1846132ec565b61323e565b9050828152602081018484840111156125ee57600080fd5b6125f98482856134e6565b509392505050565b60008135905061261081613b8f565b92915050565b600082601f83011261262757600080fd5b81356126378482602086016124ad565b91505092915050565b600082601f83011261265157600080fd5b8135612661848260208601612519565b91505092915050565b60008135905061267981613ba6565b92915050565b60008135905061268e81613bbd565b92915050565b6000815190506126a381613bbd565b92915050565b600082601f8301126126ba57600080fd5b81356126ca848260208601612585565b91505092915050565b600082601f8301126126e457600080fd5b81356126f48482602086016125c3565b91505092915050565b60008135905061270c81613bd4565b92915050565b60006020828403121561272457600080fd5b600061273284828501612601565b91505092915050565b6000806040838503121561274e57600080fd5b600061275c85828601612601565b925050602061276d85828601612601565b9150509250929050565b600080600080600060a0868803121561278f57600080fd5b600061279d88828901612601565b95505060206127ae88828901612601565b945050604086013567ffffffffffffffff8111156127cb57600080fd5b6127d788828901612640565b935050606086013567ffffffffffffffff8111156127f457600080fd5b61280088828901612640565b925050608086013567ffffffffffffffff81111561281d57600080fd5b612829888289016126a9565b9150509295509295909350565b600080600080600060a0868803121561284e57600080fd5b600061285c88828901612601565b955050602061286d88828901612601565b945050604061287e888289016126fd565b935050606061288f888289016126fd565b925050608086013567ffffffffffffffff8111156128ac57600080fd5b6128b8888289016126a9565b9150509295509295909350565b600080604083850312156128d857600080fd5b60006128e685828601612601565b92505060206128f78582860161266a565b9150509250929050565b6000806040838503121561291457600080fd5b600061292285828601612601565b9250506020612933858286016126fd565b9150509250929050565b6000806040838503121561295057600080fd5b600083013567ffffffffffffffff81111561296a57600080fd5b61297685828601612616565b925050602083013567ffffffffffffffff81111561299357600080fd5b61299f85828601612640565b9150509250929050565b600080604083850312156129bc57600080fd5b600083013567ffffffffffffffff8111156129d657600080fd5b6129e285828601612640565b925050602083013567ffffffffffffffff8111156129ff57600080fd5b612a0b85828601612640565b9150509250929050565b600060208284031215612a2757600080fd5b6000612a358482850161267f565b91505092915050565b600060208284031215612a5057600080fd5b6000612a5e84828501612694565b91505092915050565b600080600060608486031215612a7c57600080fd5b600084013567ffffffffffffffff811115612a9657600080fd5b612aa2868287016126d3565b9350506020612ab3868287016126fd565b9250506040612ac4868287016126fd565b9150509250925092565b600060208284031215612ae057600080fd5b6000612aee848285016126fd565b91505092915050565b60008060408385031215612b0a57600080fd5b6000612b18858286016126fd565b9250506020612b29858286016126fd565b9150509250929050565b6000612b3f8383612e69565b60208301905092915050565b612b5481613472565b82525050565b6000612b658261332d565b612b6f818561335b565b9350612b7a8361331d565b8060005b83811015612bab578151612b928882612b33565b9750612b9d8361334e565b925050600181019050612b7e565b5085935050505092915050565b612bc181613484565b82525050565b6000612bd282613338565b612bdc818561336c565b9350612bec8185602086016134f5565b612bf581613683565b840191505092915050565b6000612c0b82613343565b612c15818561337d565b9350612c258185602086016134f5565b612c2e81613683565b840191505092915050565b6000612c4660348361337d565b9150612c51826136a1565b604082019050919050565b6000612c6960288361337d565b9150612c74826136f0565b604082019050919050565b6000612c8c602b8361337d565b9150612c978261373f565b604082019050919050565b6000612caf60268361337d565b9150612cba8261378e565b604082019050919050565b6000612cd260298361337d565b9150612cdd826137dd565b604082019050919050565b6000612cf5601f8361337d565b9150612d008261382c565b602082019050919050565b6000612d1860258361337d565b9150612d2382613855565b604082019050919050565b6000612d3b60328361337d565b9150612d46826138a4565b604082019050919050565b6000612d5e602a8361337d565b9150612d69826138f3565b604082019050919050565b6000612d8160208361337d565b9150612d8c82613942565b602082019050919050565b6000612da460128361337d565b9150612daf8261396b565b602082019050919050565b6000612dc760128361337d565b9150612dd282613994565b602082019050919050565b6000612dea60298361337d565b9150612df5826139bd565b604082019050919050565b6000612e0d60298361337d565b9150612e1882613a0c565b604082019050919050565b6000612e3060288361337d565b9150612e3b82613a5b565b604082019050919050565b6000612e5360218361337d565b9150612e5e82613aaa565b604082019050919050565b612e72816134dc565b82525050565b612e81816134dc565b82525050565b6000602082019050612e9c6000830184612b4b565b92915050565b600060a082019050612eb76000830188612b4b565b612ec46020830187612b4b565b8181036040830152612ed68186612b5a565b90508181036060830152612eea8185612b5a565b90508181036080830152612efe8184612bc7565b90509695505050505050565b600060a082019050612f1f6000830188612b4b565b612f2c6020830187612b4b565b612f396040830186612e78565b612f466060830185612e78565b8181036080830152612f588184612bc7565b90509695505050505050565b60006020820190508181036000830152612f7e8184612b5a565b905092915050565b60006040820190508181036000830152612fa08185612b5a565b90508181036020830152612fb48184612b5a565b90509392505050565b6000602082019050612fd26000830184612bb8565b92915050565b60006020820190508181036000830152612ff28184612c00565b905092915050565b6000602082019050818103600083015261301381612c39565b9050919050565b6000602082019050818103600083015261303381612c5c565b9050919050565b6000602082019050818103600083015261305381612c7f565b9050919050565b6000602082019050818103600083015261307381612ca2565b9050919050565b6000602082019050818103600083015261309381612cc5565b9050919050565b600060208201905081810360008301526130b381612ce8565b9050919050565b600060208201905081810360008301526130d381612d0b565b9050919050565b600060208201905081810360008301526130f381612d2e565b9050919050565b6000602082019050818103600083015261311381612d51565b9050919050565b6000602082019050818103600083015261313381612d74565b9050919050565b6000602082019050818103600083015261315381612d97565b9050919050565b6000602082019050818103600083015261317381612dba565b9050919050565b6000602082019050818103600083015261319381612ddd565b9050919050565b600060208201905081810360008301526131b381612e00565b9050919050565b600060208201905081810360008301526131d381612e23565b9050919050565b600060208201905081810360008301526131f381612e46565b9050919050565b600060208201905061320f6000830184612e78565b92915050565b600060408201905061322a6000830185612e78565b6132376020830184612e78565b9392505050565b6000613248613259565b9050613254828261355a565b919050565b6000604051905090565b600067ffffffffffffffff82111561327e5761327d613632565b5b602082029050602081019050919050565b600067ffffffffffffffff8211156132aa576132a9613632565b5b602082029050602081019050919050565b600067ffffffffffffffff8211156132d6576132d5613632565b5b6132df82613683565b9050602081019050919050565b600067ffffffffffffffff82111561330757613306613632565b5b61331082613683565b9050602081019050919050565b6000819050602082019050919050565b600081519050919050565b600081519050919050565b600081519050919050565b6000602082019050919050565b600082825260208201905092915050565b600082825260208201905092915050565b600082825260208201905092915050565b6000613399826134dc565b91506133a4836134dc565b9250827fffffffffffffffffffffffffffffffffffffffffffffffffffffffffffffffff038211156133d9576133d86135d4565b5b828201905092915050565b60006133ef826134dc565b91506133fa836134dc565b9250817fffffffffffffffffffffffffffffffffffffffffffffffffffffffffffffffff0483118215151615613433576134326135d4565b5b828202905092915050565b6000613449826134dc565b9150613454836134dc565b925082821015613467576134666135d4565b5b828203905092915050565b600061347d826134bc565b9050919050565b60008115159050919050565b60007fffffffff0000000000000000000000000000000000000000000000000000000082169050919050565b600073ffffffffffffffffffffffffffffffffffffffff82169050919050565b6000819050919050565b82818337600083830152505050565b60005b838110156135135780820151818401526020810190506134f8565b83811115613522576000848401525b50505050565b6000600282049050600182168061354057607f821691505b6020821081141561355457613553613603565b5b50919050565b61356382613683565b810181811067ffffffffffffffff8211171561358257613581613632565b5b80604052505050565b6000613596826134dc565b91507fffffffffffffffffffffffffffffffffffffffffffffffffffffffffffffffff8214156135c9576135c86135d4565b5b600182019050919050565b7f4e487b7100000000000000000000000000000000000000000000000000000000600052601160045260246000fd5b7f4e487b7100000000000000000000000000000000000000000000000000000000600052602260045260246000fd5b7f4e487b7100000000000000000000000000000000000000000000000000000000600052604160045260246000fd5b600060033d11156136805760046000803e61367d600051613694565b90505b90565b6000601f19601f8301169050919050565b60008160e01c9050919050565b7f455243313135353a207472616e7366657220746f206e6f6e204552433131353560008201527f526563656976657220696d706c656d656e746572000000000000000000000000602082015250565b7f455243313135353a204552433131353552656365697665722072656a6563746560008201527f6420746f6b656e73000000000000000000000000000000000000000000000000602082015250565b7f455243313135353a2062616c616e636520717565727920666f7220746865207a60008201527f65726f2061646472657373000000000000000000000000000000000000000000602082015250565b7f4f776e61626c653a206e6577206f776e657220697320746865207a65726f206160008201527f6464726573730000000000000000000000000000000000000000000000000000602082015250565b7f455243313135353a2063616c6c6572206973206e6f74206f776e6572206e6f7260008201527f20617070726f7665640000000000000000000000000000000000000000000000602082015250565b7f45746865722076616c75652073656e74206973206e6f7420636f727265637400600082015250565b7f455243313135353a207472616e7366657220746f20746865207a65726f20616460008201527f6472657373000000000000000000000000000000000000000000000000000000602082015250565b7f455243313135353a207472616e736665722063616c6c6572206973206e6f742060008201527f6f776e6572206e6f7220617070726f7665640000000000000000000000000000602082015250565b7f455243313135353a20696e73756666696369656e742062616c616e636520666f60008201527f72207472616e7366657200000000000000000000000000000000000000000000602082015250565b7f4f776e61626c653a2063616c6c6572206973206e6f7420746865206f776e6572600082015250565b7f45786365656473204d41585f535550504c590000000000000000000000000000600082015250565b7f616d6f756e742063616e6e6f7420626520300000000000000000000000000000600082015250565b7f455243313135353a2073657474696e6720617070726f76616c2073746174757360008201527f20666f722073656c660000000000000000000000000000000000000000000000602082015250565b7f455243313135353a206163636f756e747320616e6420696473206c656e67746860008201527f206d69736d617463680000000000000000000000000000000000000000000000602082015250565b7f455243313135353a2069647320616e6420616d6f756e7473206c656e6774682060008201527f6d69736d61746368000000000000000000000000000000000000000000000000602082015250565b7f455243313135353a206d696e7420746f20746865207a65726f2061646472657360008201527f7300000000000000000000000000000000000000000000000000000000000000602082015250565b600060443d1015613b0957613b8c565b613b11613259565b60043d036004823e80513d602482011167ffffffffffffffff82111715613b39575050613b8c565b808201805167ffffffffffffffff811115613b575750505050613b8c565b80602083010160043d038501811115613b74575050505050613b8c565b613b838260200185018661355a565b82955050505050505b90565b613b9881613472565b8114613ba357600080fd5b50565b613baf81613484565b8114613bba57600080fd5b50565b613bc681613490565b8114613bd157600080fd5b50565b613bdd816134dc565b8114613be857600080fd5b5056fea2646970667358221220b8bdd6e740bfc8870c96a0b0afbbc63783a4d0e12651fe6c87e883a5a0ea62ce64736f6c63430008030033",
  "immutableReferences": {},
  "source": "// SPDX-License-Identifier: BUSL-1.1\r\n\r\npragma solidity ^0.8.0;\r\n\r\nimport \"@openzeppelin/contracts/token/ERC1155/ERC1155.sol\";\r\nimport \"@openzeppelin/contracts/access/Ownable.sol\";\r\nimport \"@openzeppelin/contracts/utils/Counters.sol\";\r\n\r\ncontract IsotileFurnitureV0 is ERC1155, Ownable {\r\n\r\n  using Counters for Counters.Counter;  \r\n  Counters.Counter private _furnitureIds;\r\n\r\n  struct Furniture {\r\n    string uri;\r\n    uint256 maxSupply;\r\n    uint256 weisPrice;\r\n    uint256 totalSupply;\r\n  }\r\n\r\n  // Mapping from furniture ID to furnitures\r\n  mapping (uint256 => Furniture) private _furnitures;\r\n  \r\n  constructor() ERC1155(\"isotile.com\") {}\r\n\r\n  // Get total furnitures added to isotile contract\r\n  function getTotalFurnitures() public view returns (uint256){\r\n    return _furnitureIds.current();\r\n  }\r\n\r\n  // Create a furniture\r\n  function addFurniture(string memory _globalUri, uint256 _maxSupply, uint256 _weisPrice) public onlyOwner {\r\n    uint256 newFurnitureId = _furnitureIds.current();\r\n\r\n    _furnitures[newFurnitureId].uri = _globalUri;\r\n    _furnitures[newFurnitureId].maxSupply = _maxSupply;\r\n    _furnitures[newFurnitureId].weisPrice = _weisPrice;\r\n\r\n    _furnitureIds.increment();\r\n  }\r\n\r\n  // Override get uri for a furniture ID\r\n  function uri(uint256 id) public view override returns (string memory) {\r\n    return _furnitures[id].uri;\r\n  }\r\n\r\n  // Get max supply for a furniture ID\r\n  function getMaxSupply(uint256 id) public view returns (uint256){\r\n    return _furnitures[id].maxSupply;\r\n  }\r\n\r\n  // Get count of furnitures minted for a furniture ID\r\n  function getTotalSupply(uint256 id) public view returns (uint256){\r\n    return _furnitures[id].totalSupply;\r\n  }\r\n\r\n  // Get price in weis of furniture ID\r\n  function getWeisPrice(uint256 id) public view returns (uint256){\r\n    return _furnitures[id].weisPrice;\r\n  }\r\n\r\n  // Mint one furniture\r\n  function mintFurniture(uint256 id, uint256 amount) public payable {\r\n    require(amount > 0, \"amount cannot be 0\");\r\n    require(_furnitures[id].weisPrice * amount == msg.value, \"Ether value sent is not correct\");\r\n\r\n    _furnitures[id].totalSupply += amount;\r\n    require(_furnitures[id].totalSupply < _furnitures[id].maxSupply, \"Exceeds MAX_SUPPLY\");\r\n\r\n    _mint(msg.sender, id, amount, \"\");\r\n  }\r\n\r\n  // Mint batch furnitures\r\n  function mintBatchFurnitures(uint256[] memory ids, uint256[] memory amounts) public payable {\r\n    require(ids.length == amounts.length, \"ERC1155: ids and amounts length mismatch\");\r\n\r\n    uint256 totalSum = 0;\r\n    for (uint i = 0; i < ids.length; i++) {\r\n      uint256 id = ids[i];\r\n      uint256 amount = amounts[i];\r\n\r\n      require(amount > 0, \"amount cannot be 0\");\r\n\r\n      _furnitures[id].totalSupply += amount;\r\n      require(_furnitures[id].totalSupply + amount < _furnitures[id].maxSupply, \"Exceeds MAX_SUPPLY\");\r\n\r\n      totalSum += _furnitures[id].weisPrice * amount;\r\n    }\r\n\r\n    require(totalSum == msg.value, \"Ether value sent is not correct\");\r\n\r\n    _mintBatch(msg.sender, ids, amounts, \"\");\r\n  }\r\n\r\n  function withdraw() onlyOwner public {\r\n    uint balance = address(this).balance;\r\n    payable(msg.sender).transfer(balance);\r\n  }\r\n\r\n}",
  "sourcePath": "E:/otros/isotile/isotile-contracts/contracts/IsotileFurnitureV0.sol",
  "compiler": {
    "name": "solc",
    "version": "0.8.3+commit.8d00100c.Emscripten.clang"
  },
  "schemaVersion": "3.3.4",
  "updatedAt": "2021-04-07T11:05:01.143Z",
  "networkType": "ethereum",
  "devdoc": {
    "kind": "dev",
    "methods": {
      "balanceOf(address,uint256)": {
        "details": "See {IERC1155-balanceOf}. Requirements: - `account` cannot be the zero address."
      },
      "balanceOfBatch(address[],uint256[])": {
        "details": "See {IERC1155-balanceOfBatch}. Requirements: - `accounts` and `ids` must have the same length."
      },
      "isApprovedForAll(address,address)": {
        "details": "See {IERC1155-isApprovedForAll}."
      },
      "owner()": {
        "details": "Returns the address of the current owner."
      },
      "renounceOwnership()": {
        "details": "Leaves the contract without owner. It will not be possible to call `onlyOwner` functions anymore. Can only be called by the current owner. NOTE: Renouncing ownership will leave the contract without an owner, thereby removing any functionality that is only available to the owner."
      },
      "safeBatchTransferFrom(address,address,uint256[],uint256[],bytes)": {
        "details": "See {IERC1155-safeBatchTransferFrom}."
      },
      "safeTransferFrom(address,address,uint256,uint256,bytes)": {
        "details": "See {IERC1155-safeTransferFrom}."
      },
      "setApprovalForAll(address,bool)": {
        "details": "See {IERC1155-setApprovalForAll}."
      },
      "supportsInterface(bytes4)": {
        "details": "See {IERC165-supportsInterface}."
      },
      "transferOwnership(address)": {
        "details": "Transfers ownership of the contract to a new account (`newOwner`). Can only be called by the current owner."
      }
    },
    "version": 1
  },
  "userdoc": {
    "kind": "user",
    "methods": {},
    "version": 1
  }
}